{
  "address": "0x992c25f772a4d27e8ade586E37B8909aaa5b3Fde",
  "abi": [
    {
      "inputs": [
        {
          "internalType": "address",
          "name": "feeCollector",
          "type": "address"
        }
      ],
      "stateMutability": "nonpayable",
      "type": "constructor"
    },
    {
      "inputs": [],
      "name": "Snowman__AcccessoryAlreadyExists",
      "type": "error"
    },
    {
      "inputs": [],
      "name": "Snowman__AccessoriesCountMismatch",
      "type": "error"
    },
    {
      "inputs": [],
      "name": "Snowman__AccessoryAlreadyWorn",
      "type": "error"
    },
    {
      "inputs": [],
      "name": "Snowman__AccessoryNotWorn",
      "type": "error"
    },
    {
      "inputs": [],
      "name": "Snowman__CannotWearAccessory",
      "type": "error"
    },
    {
      "inputs": [],
      "name": "Snowman__InvalidFeeCollector",
      "type": "error"
    },
    {
      "inputs": [],
      "name": "Snowman__InvalidMintFee",
      "type": "error"
    },
    {
      "inputs": [],
      "name": "Snowman__NoAccessories",
      "type": "error"
    },
    {
      "inputs": [],
      "name": "Snowman__NoFeesAvailable",
      "type": "error"
    },
    {
      "inputs": [],
      "name": "Snowman__NotAccessoryOwner",
      "type": "error"
    },
    {
      "inputs": [],
      "name": "Snowman__NotEnoughEth",
      "type": "error"
    },
    {
      "inputs": [],
      "name": "Snowman__NotMinted",
      "type": "error"
    },
    {
      "inputs": [],
      "name": "Snowman__NotOwner",
      "type": "error"
    },
    {
      "inputs": [],
      "name": "Snowman__UnavailableAccessory",
      "type": "error"
    },
    {
      "inputs": [],
      "name": "Snowman__WithdrawalFailed",
      "type": "error"
    },
    {
      "inputs": [],
      "name": "Snowman__ZeroAddress",
      "type": "error"
    },
    {
      "inputs": [],
      "name": "TypeCast__toUint256_OutOfBounds",
      "type": "error"
    },
    {
      "anonymous": false,
      "inputs": [
        {
          "indexed": false,
          "internalType": "address[]",
          "name": "accessories",
          "type": "address[]"
        }
      ],
      "name": "AccessoriesAdded",
      "type": "event"
    },
    {
      "anonymous": false,
      "inputs": [
        {
          "components": [
            {
              "internalType": "address",
              "name": "_address",
              "type": "address"
            },
            {
              "internalType": "enum DataTypes.AccessoryPosition",
              "name": "position",
              "type": "uint8"
            }
          ],
          "indexed": false,
          "internalType": "struct DataTypes.Accessory[]",
          "name": "accessories",
          "type": "tuple[]"
        },
        {
          "indexed": false,
          "internalType": "uint256",
          "name": "snowmanId",
          "type": "uint256"
        }
      ],
      "name": "AccessoriesRemoved",
      "type": "event"
    },
    {
      "anonymous": false,
      "inputs": [
        {
          "indexed": false,
          "internalType": "address",
          "name": "accessory",
          "type": "address"
        }
      ],
      "name": "AccessoryAdded",
      "type": "event"
    },
    {
      "anonymous": false,
      "inputs": [
        {
          "indexed": false,
          "internalType": "address",
          "name": "accessory",
          "type": "address"
        },
        {
          "indexed": false,
          "internalType": "uint256",
          "name": "snowmanId",
          "type": "uint256"
        }
      ],
      "name": "AccessoryRemoved",
      "type": "event"
    },
    {
      "anonymous": false,
      "inputs": [
        {
          "indexed": true,
          "internalType": "address",
          "name": "owner",
          "type": "address"
        },
        {
          "indexed": true,
          "internalType": "address",
          "name": "approved",
          "type": "address"
        },
        {
          "indexed": true,
          "internalType": "uint256",
          "name": "tokenId",
          "type": "uint256"
        }
      ],
      "name": "Approval",
      "type": "event"
    },
    {
      "anonymous": false,
      "inputs": [
        {
          "indexed": true,
          "internalType": "address",
          "name": "owner",
          "type": "address"
        },
        {
          "indexed": true,
          "internalType": "address",
          "name": "operator",
          "type": "address"
        },
        {
          "indexed": false,
          "internalType": "bool",
          "name": "approved",
          "type": "bool"
        }
      ],
      "name": "ApprovalForAll",
      "type": "event"
    },
    {
      "anonymous": false,
      "inputs": [
        {
          "indexed": false,
          "internalType": "address",
          "name": "oldFeeCollector",
          "type": "address"
        },
        {
          "indexed": false,
          "internalType": "address",
          "name": "newFeeCollector",
          "type": "address"
        }
      ],
      "name": "FeeCollectorChanged",
      "type": "event"
    },
    {
      "anonymous": false,
      "inputs": [
        {
          "indexed": false,
          "internalType": "uint256",
          "name": "amount",
          "type": "uint256"
        }
      ],
      "name": "FeesWithdrawn",
      "type": "event"
    },
    {
      "anonymous": false,
      "inputs": [
        {
          "indexed": true,
          "internalType": "address",
          "name": "previousOwner",
          "type": "address"
        },
        {
          "indexed": true,
          "internalType": "address",
          "name": "newOwner",
          "type": "address"
        }
      ],
      "name": "OwnershipTransferred",
      "type": "event"
    },
    {
      "anonymous": false,
      "inputs": [
        {
          "indexed": true,
          "internalType": "address",
          "name": "from",
          "type": "address"
        },
        {
          "indexed": true,
          "internalType": "address",
          "name": "to",
          "type": "address"
        },
        {
          "indexed": true,
          "internalType": "uint256",
          "name": "tokenId",
          "type": "uint256"
        }
      ],
      "name": "Transfer",
      "type": "event"
    },
    {
      "inputs": [
        {
          "internalType": "address",
          "name": "accessory",
          "type": "address"
        },
        {
          "internalType": "uint256",
          "name": "snowmanId",
          "type": "uint256"
        }
      ],
      "name": "accessoryId",
      "outputs": [
        {
          "internalType": "uint256",
          "name": "",
          "type": "uint256"
        }
      ],
      "stateMutability": "view",
      "type": "function"
    },
    {
      "inputs": [
        {
          "internalType": "address[]",
          "name": "accessories",
          "type": "address[]"
        },
        {
          "internalType": "enum DataTypes.AccessoryPosition[]",
          "name": "positions",
          "type": "uint8[]"
        }
      ],
      "name": "addAccessories",
      "outputs": [],
      "stateMutability": "nonpayable",
      "type": "function"
    },
    {
      "inputs": [
        {
          "internalType": "address",
          "name": "accessory",
          "type": "address"
        },
        {
          "internalType": "enum DataTypes.AccessoryPosition",
          "name": "position",
          "type": "uint8"
        }
      ],
      "name": "addAccessory",
      "outputs": [],
      "stateMutability": "nonpayable",
      "type": "function"
    },
    {
      "inputs": [
        {
          "internalType": "address",
          "name": "to",
          "type": "address"
        },
        {
          "internalType": "uint256",
          "name": "tokenId",
          "type": "uint256"
        }
      ],
      "name": "approve",
      "outputs": [],
      "stateMutability": "nonpayable",
      "type": "function"
    },
    {
      "inputs": [
        {
          "internalType": "address",
          "name": "owner",
          "type": "address"
        }
      ],
      "name": "balanceOf",
      "outputs": [
        {
          "internalType": "uint256",
          "name": "",
          "type": "uint256"
        }
      ],
      "stateMutability": "view",
      "type": "function"
    },
    {
      "inputs": [],
      "name": "getAccessories",
      "outputs": [
        {
          "components": [
            {
              "internalType": "address",
              "name": "_address",
              "type": "address"
            },
            {
              "internalType": "enum DataTypes.AccessoryPosition",
              "name": "position",
              "type": "uint8"
            }
          ],
          "internalType": "struct DataTypes.Accessory[]",
          "name": "",
          "type": "tuple[]"
        }
      ],
      "stateMutability": "view",
      "type": "function"
    },
    {
      "inputs": [
        {
          "internalType": "address",
          "name": "accessory",
          "type": "address"
        },
        {
          "internalType": "uint256",
          "name": "snowmanId",
          "type": "uint256"
        }
      ],
      "name": "getAccessoryById",
      "outputs": [
        {
          "internalType": "uint256",
          "name": "",
          "type": "uint256"
        }
      ],
      "stateMutability": "view",
      "type": "function"
    },
    {
      "inputs": [
        {
          "internalType": "uint256",
          "name": "tokenId",
          "type": "uint256"
        }
      ],
      "name": "getApproved",
      "outputs": [
        {
          "internalType": "address",
          "name": "",
          "type": "address"
        }
      ],
      "stateMutability": "view",
      "type": "function"
    },
    {
      "inputs": [],
      "name": "getFeeCollector",
      "outputs": [
        {
          "internalType": "address",
          "name": "",
          "type": "address"
        }
      ],
      "stateMutability": "view",
      "type": "function"
    },
    {
      "inputs": [
        {
          "internalType": "address",
          "name": "accessory",
          "type": "address"
        },
        {
          "internalType": "uint256",
          "name": "snowmanId",
          "type": "uint256"
        }
      ],
      "name": "hasAccessory",
      "outputs": [
        {
          "internalType": "bool",
          "name": "",
          "type": "bool"
        }
      ],
      "stateMutability": "view",
      "type": "function"
    },
    {
      "inputs": [
        {
          "internalType": "address",
          "name": "accessory",
          "type": "address"
        }
      ],
      "name": "isAccessoryAvailable",
      "outputs": [
        {
          "internalType": "bool",
          "name": "",
          "type": "bool"
        }
      ],
      "stateMutability": "view",
      "type": "function"
    },
    {
      "inputs": [
        {
          "internalType": "address",
          "name": "owner",
          "type": "address"
        },
        {
          "internalType": "address",
          "name": "operator",
          "type": "address"
        }
      ],
      "name": "isApprovedForAll",
      "outputs": [
        {
          "internalType": "bool",
          "name": "",
          "type": "bool"
        }
      ],
      "stateMutability": "view",
      "type": "function"
    },
    {
      "inputs": [],
      "name": "mint",
      "outputs": [
        {
          "internalType": "uint256",
          "name": "",
          "type": "uint256"
        }
      ],
      "stateMutability": "payable",
      "type": "function"
    },
    {
      "inputs": [],
      "name": "name",
      "outputs": [
        {
          "internalType": "string",
          "name": "",
          "type": "string"
        }
      ],
      "stateMutability": "view",
      "type": "function"
    },
    {
      "inputs": [
        {
          "internalType": "address",
          "name": "operator",
          "type": "address"
        },
        {
          "internalType": "address",
          "name": "from",
          "type": "address"
        },
        {
          "internalType": "uint256",
          "name": "tokenId",
          "type": "uint256"
        },
        {
          "internalType": "bytes",
          "name": "snowmanIdData",
          "type": "bytes"
        }
      ],
      "name": "onERC721Received",
      "outputs": [
        {
          "internalType": "bytes4",
          "name": "",
          "type": "bytes4"
        }
      ],
      "stateMutability": "nonpayable",
      "type": "function"
    },
    {
      "inputs": [],
      "name": "owner",
      "outputs": [
        {
          "internalType": "address",
          "name": "",
          "type": "address"
        }
      ],
      "stateMutability": "view",
      "type": "function"
    },
    {
      "inputs": [
        {
          "internalType": "uint256",
          "name": "tokenId",
          "type": "uint256"
        }
      ],
      "name": "ownerOf",
      "outputs": [
        {
          "internalType": "address",
          "name": "",
          "type": "address"
        }
      ],
      "stateMutability": "view",
      "type": "function"
    },
    {
      "inputs": [
        {
          "internalType": "address",
          "name": "accessory",
          "type": "address"
        },
        {
          "internalType": "uint256",
          "name": "snowmanId",
          "type": "uint256"
        }
      ],
      "name": "removeAccessory",
      "outputs": [],
      "stateMutability": "nonpayable",
      "type": "function"
    },
    {
      "inputs": [
        {
          "internalType": "uint256",
          "name": "snowmanId",
          "type": "uint256"
        }
      ],
      "name": "removeAllAccessories",
      "outputs": [],
      "stateMutability": "nonpayable",
      "type": "function"
    },
    {
      "inputs": [
        {
          "internalType": "uint256",
          "name": "tokenId",
          "type": "uint256"
        }
      ],
      "name": "renderTokenById",
      "outputs": [
        {
          "internalType": "string",
          "name": "",
          "type": "string"
        }
      ],
      "stateMutability": "view",
      "type": "function"
    },
    {
      "inputs": [],
      "name": "renounceOwnership",
      "outputs": [],
      "stateMutability": "nonpayable",
      "type": "function"
    },
    {
      "inputs": [
        {
          "internalType": "address",
          "name": "from",
          "type": "address"
        },
        {
          "internalType": "address",
          "name": "to",
          "type": "address"
        },
        {
          "internalType": "uint256",
          "name": "tokenId",
          "type": "uint256"
        }
      ],
      "name": "safeTransferFrom",
      "outputs": [],
      "stateMutability": "nonpayable",
      "type": "function"
    },
    {
      "inputs": [
        {
          "internalType": "address",
          "name": "from",
          "type": "address"
        },
        {
          "internalType": "address",
          "name": "to",
          "type": "address"
        },
        {
          "internalType": "uint256",
          "name": "tokenId",
          "type": "uint256"
        },
        {
          "internalType": "bytes",
          "name": "data",
          "type": "bytes"
        }
      ],
      "name": "safeTransferFrom",
      "outputs": [],
      "stateMutability": "nonpayable",
      "type": "function"
    },
    {
      "inputs": [
        {
          "internalType": "address",
          "name": "operator",
          "type": "address"
        },
        {
          "internalType": "bool",
          "name": "approved",
          "type": "bool"
        }
      ],
      "name": "setApprovalForAll",
      "outputs": [],
      "stateMutability": "nonpayable",
      "type": "function"
    },
    {
      "inputs": [
        {
          "internalType": "address",
          "name": "newFeeCollector",
          "type": "address"
        }
      ],
      "name": "setFeeCollector",
      "outputs": [],
      "stateMutability": "nonpayable",
      "type": "function"
    },
    {
      "inputs": [
        {
          "internalType": "bytes4",
          "name": "interfaceId",
          "type": "bytes4"
        }
      ],
      "name": "supportsInterface",
      "outputs": [
        {
          "internalType": "bool",
          "name": "",
          "type": "bool"
        }
      ],
      "stateMutability": "view",
      "type": "function"
    },
    {
      "inputs": [],
      "name": "symbol",
      "outputs": [
        {
          "internalType": "string",
          "name": "",
          "type": "string"
        }
      ],
      "stateMutability": "view",
      "type": "function"
    },
    {
      "inputs": [
        {
          "internalType": "uint256",
          "name": "index",
          "type": "uint256"
        }
      ],
      "name": "tokenByIndex",
      "outputs": [
        {
          "internalType": "uint256",
          "name": "",
          "type": "uint256"
        }
      ],
      "stateMutability": "view",
      "type": "function"
    },
    {
      "inputs": [
        {
          "internalType": "address",
          "name": "owner",
          "type": "address"
        },
        {
          "internalType": "uint256",
          "name": "index",
          "type": "uint256"
        }
      ],
      "name": "tokenOfOwnerByIndex",
      "outputs": [
        {
          "internalType": "uint256",
          "name": "",
          "type": "uint256"
        }
      ],
      "stateMutability": "view",
      "type": "function"
    },
    {
      "inputs": [
        {
          "internalType": "uint256",
          "name": "tokenId",
          "type": "uint256"
        }
      ],
      "name": "tokenURI",
      "outputs": [
        {
          "internalType": "string",
          "name": "",
          "type": "string"
        }
      ],
      "stateMutability": "view",
      "type": "function"
    },
    {
      "inputs": [],
      "name": "totalSupply",
      "outputs": [
        {
          "internalType": "uint256",
          "name": "",
          "type": "uint256"
        }
      ],
      "stateMutability": "view",
      "type": "function"
    },
    {
      "inputs": [
        {
          "internalType": "address",
          "name": "from",
          "type": "address"
        },
        {
          "internalType": "address",
          "name": "to",
          "type": "address"
        },
        {
          "internalType": "uint256",
          "name": "tokenId",
          "type": "uint256"
        }
      ],
      "name": "transferFrom",
      "outputs": [],
      "stateMutability": "nonpayable",
      "type": "function"
    },
    {
      "inputs": [
        {
          "internalType": "address",
          "name": "newOwner",
          "type": "address"
        }
      ],
      "name": "transferOwnership",
      "outputs": [],
      "stateMutability": "nonpayable",
      "type": "function"
    },
    {
      "inputs": [],
      "name": "withdrawFees",
      "outputs": [],
      "stateMutability": "nonpayable",
      "type": "function"
    }
  ],
  "transactionHash": "0x3f8ad5a3b12cb426d2529ef6497caba69015428f82af17496c9f87baacaa55c2",
  "args": [
    "0x7a82bbfD10E3Ce5817dEcC0ee870e17D6853D901"
  ],
  "numDeployments": 1,
  "solcInputHash": "c9ae1a05729e49b7a29749fce60cfd7b",
  "bytecode": "0x6080346200037a57601f906001600160401b0390601f199062002ad538819003858101841683018581118482101762000364578392829160405283396020928391810103126200037a57516001600160a01b039485821694918590036200037a576200006a6200037f565b92620000756200037f565b9084519584871162000364576000968754966001978881811c9116801562000359575b858210146200034557908187849311620002f2575b50849087831160011462000291578a9262000285575b5050600019600383901b1c191690871b1787555b8251948511620002715785548681811c9116801562000266575b838210146200025257908185879695949311620001f9575b508193851160011462000194575050859262000188575b5050600019600383901b1c191690821b1790555b600a5460018060a01b0319913383831617600a557f8be0079c531659141344cd1fd0a4f28419497f9722a3daafe3b4186f6b6457e0604051953393169180a3600b541617600b556127219081620003b48239f35b01519050388062000120565b869593929193168588528388209388905b828210620001df5750508411620001c5575b505050811b01905562000134565b015160001960f88460031b161c19169055388080620001b7565b8484015186558897909501949384019390810190620001a5565b9091929394508688528288208580880160051c82019285891062000248575b9188978a9297969594930160051c01915b8281106200023957505062000109565b8a815588975089910162000229565b9250819262000218565b634e487b7160e01b88526022600452602488fd5b90607f1690620000f1565b634e487b7160e01b87526041600452602487fd5b015190503880620000c3565b90848a9416918b8052868c20928c5b88828210620002db5750508411620002c1575b505050811b018755620000d7565b015160001960f88460031b161c19169055388080620002b3565b8385015186558d97909501949384019301620002a0565b909150898052848a208780850160051c8201928786106200033b575b918b91869594930160051c01915b8281106200032c575050620000ad565b8c81558594508b91016200031c565b925081926200030e565b634e487b7160e01b8a52602260045260248afd5b90607f169062000098565b634e487b7160e01b600052604160045260246000fd5b600080fd5b60408051919082016001600160401b038111838210176200036457604052600782526629b737bbb6b0b760c91b602083015256fe6080604052600436101561001257600080fd5b60003560e01c806301ffc9a71461023757806306fdde0314610232578063081812fc1461022d578063095ea7b3146102285780631249c58b1461022357806312fde4b71461021e578063150b7a021461021957806318160ddd1461021457806323b872dd1461020f5780632f745c591461020a57806342842e0e14610205578063476343ee146102005780634f6ccce7146101fb578063528088cd146101f65780636352211e146101f157806370a08231146101ec578063715018a6146101e75780637cb3b0bd146101e25780638da5cb5b146101dd5780639457e3ad146101d857806395d89b41146101d3578063a22cb465146101ce578063a2b4df33146101c9578063a2d6c6da146101c4578063a42dce80146101bf578063a5ff125f146101ba578063b761fdb1146101b5578063b88d4fde146101b0578063c2365a40146101ab578063c87b56dd146101a6578063ca3855f6146101a1578063d1cb8c691461019c578063e985e9c5146101975763f2fde38b1461019257600080fd5b6115c0565b611558565b611516565b611440565b61137f565b6112b5565b61124d565b61112b565b611024565b610f32565b610e3d565b610e03565b610d09565b610c5a565b610bce565b610ba5565b610b20565b610ac2565b610a93565b610a75565b6109bb565b610890565b610830565b6107f1565b61073a565b610711565b6106c7565b610639565b610610565b610547565b610466565b610425565b610342565b610253565b6001600160e01b031981160361024e57565b600080fd5b3461024e57602036600319011261024e5760206004356102728161023c565b63ffffffff60e01b1663780e9d6360e01b8114908115610298575b506040519015158152f35b6380ac58cd60e01b8114915081156102ca575b81156102b9575b503861028d565b6301ffc9a760e01b149050386102b2565b635b5e139f60e01b811491506102ab565b600091031261024e57565b60005b8381106102f95750506000910152565b81810151838201526020016102e9565b90602091610322815180928185528580860191016102e6565b601f01601f1916010190565b90602061033f928181520190610309565b90565b3461024e576000806003193601126104225760405190808054610364816117cb565b808552916001918083169081156103f8575060011461039e575b61039a8561038e818703826111d8565b6040519182918261032e565b0390f35b80809450527f290decd9548b62a8d60345a988386fc84ba6bc95484008f6362f93160ef3e5635b8284106103e057505050810160200161038e8261039a61037e565b805460208587018101919091529093019281016103c5565b86955061039a9693506020925061038e94915060ff191682840152151560051b820101929361037e565b80fd5b3461024e57602036600319011261024e57602061044360043561190d565b6040516001600160a01b039091168152f35b6001600160a01b0381160361024e57565b3461024e57604036600319011261024e5760043561048381610455565b60243561048f816117a8565b916001600160a01b0380841690821681146104f8576104c1936104bc9133149081156104c3575b5061189b565b611c8e565b005b6001600160a01b0316600090815260056020908152604080832033845290915290206104f291505b5460ff1690565b386104b6565b60405162461bcd60e51b815260206004820152602160248201527f4552433732313a20617070726f76616c20746f2063757272656e74206f776e656044820152603960f91b6064820152608490fd5b6000806003193601126104225766470de4df82000034036105fe576105706001600c5401600c55565b600c5461057d8133612179565b7314C37E3018aA72A788d904604dB105Ff8d307f5E91823b156104225760405163391b088d60e01b8152600d60048201526024810183905292839060449082905af49182156105f95761039a926105e0575b506040519081529081906020820190565b806105ed6105f39261118c565b806102db565b386105cf565b611d38565b60405163198d8b9f60e01b8152600490fd5b3461024e57600036600319011261024e57600b546040516001600160a01b039091168152602090f35b3461024e57608036600319011261024e57610655600435610455565b60243561066181610455565b60643567ffffffffffffffff80821161024e573660238301121561024e57816004013590811161024e57366024828401011161024e5761039a9260246106ac93019060443590612303565b6040516001600160e01b031990911681529081906020820190565b3461024e57600036600319011261024e576020600854604051908152f35b606090600319011261024e576004356106fd81610455565b9060243561070a81610455565b9060443590565b3461024e576104c1610722366106e5565b916107356107308433611a48565b61194b565b611b1a565b3461024e57604036600319011261024e5760043561075781610455565b60243590610764816116e5565b821015610798576001600160a01b031660009081526006602090815260408083209383529281529082902054915191825290f35b60405162461bcd60e51b815260206004820152602b60248201527f455243373231456e756d657261626c653a206f776e657220696e646578206f7560448201526a74206f6620626f756e647360a81b6064820152608490fd5b3461024e576107ff366106e5565b60405191602083019383851067ffffffffffffffff86111761082b576104c194604052600084526119ad565b611176565b3461024e5760008060031936011261042257471561087e578080808060018060a01b03600b541647905af1610863611d44565b501561086c5780f35b60405163e56baab760e01b8152600490fd5b604051630b264f8360e31b8152600490fd5b3461024e57602036600319011261024e576004356008548110156108e15760086000527ff3f7a9fe364faab93b216da50a3214154f22a0a2b415b23a84c8169e8b636ee30154604051908152602090f35b60405162461bcd60e51b815260206004820152602c60248201527f455243373231456e756d657261626c653a20676c6f62616c20696e646578206f60448201526b7574206f6620626f756e647360a01b6064820152608490fd5b9060028210156109485752565b634e487b7160e01b600052602160045260246000fd5b60208082019080835283518092528060408094019401926000905b83821061098857505050505090565b909192939483826001926109ae838a51868060a01b03815116845201518483019061093b565b0196019493920190610979565b3461024e57600036600319011261024e57600e5467ffffffffffffffff811161082b5760409081519060206109f5818360051b01846111d8565b81835280830190600e6000527fbb7b4a454dc3493923482f07822329ed19e8244eff582cc204f8554c3620c3fd6000925b848410610a3a5786518061039a888261095e565b60018381928951610a4a816111a0565b610a6760ff8754868060a01b038116845260a01c1684830161250f565b815201920193019290610a26565b3461024e57602036600319011261024e5760206104436004356117a8565b3461024e57602036600319011261024e576020610aba600435610ab581610455565b6116e5565b604051908152f35b3461024e5760008060031936011261042257610adc61168d565b600a80546001600160a01b0319811690915581906001600160a01b03167f8be0079c531659141344cd1fd0a4f28419497f9722a3daafe3b4186f6b6457e08280a380f35b3461024e5760006020366003190112610422577388dB9e47d866DF27822912eB2395B6DC18B4513a803b15610ba15781604051809263efa9872960e01b8252606060048301528180610b7460648201612289565b60106024830152600435604483015203915af480156105f957610b95575080f35b610b9e9061118c565b80f35b5080fd5b3461024e57600036600319011261024e57600a546040516001600160a01b039091168152602090f35b3461024e576000604036600319011261042257600435610bed81610455565b817388dB9e47d866DF27822912eB2395B6DC18B4513a91823b15610ba15760405163c6ebe1a360e01b8152600f600482015260106024808301919091526001600160a01b039290921660448201529035606482015291829060849082905af480156105f957610b95575080f35b3461024e576000806003193601126104225760405190806001805491610c7f836117cb565b808652928281169081156103f85750600114610ca55761039a8561038e818703826111d8565b92508083527fb10e2d527612073b26eecdfd717e6a320cf44b4afac2b0732d9fcbe2b7fa0cf65b828410610ce757505050810160200161038e8261039a61037e565b80546020858701810191909152909301928101610ccc565b8015150361024e57565b3461024e57604036600319011261024e57600435610d2681610455565b602435610d3281610cff565b6001600160a01b03821691338314610db45781610d71610d829233600052600560205260406000209060018060a01b0316600052602052604060002090565b9060ff801983541691151516179055565b604051901515815233907f17307eab39ab6107e8899845ad3d59bd9653f200f220920489ca2b5937696c3190602090a3005b60405162461bcd60e51b815260206004820152601960248201527f4552433732313a20617070726f766520746f2063616c6c6572000000000000006044820152606490fd5b6002111561024e57565b3461024e57604036600319011261024e576104c1600435610e2381610455565b60243590610e3082610df9565b610e3861168d565b61251b565b3461024e57602036600319011261024e57610ed860043580600052600d60205260006040918282206004845191610e73836111bc565b80548352600181015460208401528551610e9b81610e948160028601611805565b03826111d8565b868401528551610eb281610e948160038601611805565b606084015201546080820152835163175020f560e21b81529485928392600484016124a2565b0381730392e14175A34d80040a4D265AF15676d9d90b065af49081156105f95761039a92600092610f0f575b50519182918261032e565b610f2b91923d8091833e610f2381836111d8565b8101906123d7565b9038610f04565b3461024e57602036600319011261024e57600435610f4f81610455565b610f5761168d565b600b54906001600160a01b038083169082168015610fe157818114610fcf576001600160a01b031993909316909217600b55604080516001600160a01b0393841681529190921660208201527f649c5e3d0ed183894196148e193af316452b0037e77d2ff0fef23b7dc722bed091819081015b0390a1005b6040516348c41f9b60e01b8152600490fd5b604051630503d1d560e41b8152600490fd5b9181601f8401121561024e5782359167ffffffffffffffff831161024e576020808501948460051b01011161024e57565b3461024e57604036600319011261024e5767ffffffffffffffff60043581811161024e57611056903690600401610ff3565b909160243590811161024e57611070903690600401610ff3565b929061107a61168d565b8215611119578383036111075760005b8381106110c2576040517f32f2370e0dc4460c7df1749be2f9ddafd4c5f97d6a543e7c5ea205d02d49e60a9080610fca87878361267b565b6110f16110d86110d3838787612657565b612667565b6110eb6110e6848987612657565b612671565b9061251b565b60001981146111025760010161108a565b612039565b6040516308dd6a9360e41b8152600490fd5b604051637c7a2a9560e01b8152600490fd5b3461024e57604036600319011261024e5760043561114881610455565b60018060a01b0316600052601060205260406000206024356000526020526020604060002054604051908152f35b634e487b7160e01b600052604160045260246000fd5b67ffffffffffffffff811161082b57604052565b6040810190811067ffffffffffffffff82111761082b57604052565b60a0810190811067ffffffffffffffff82111761082b57604052565b90601f8019910116810190811067ffffffffffffffff82111761082b57604052565b67ffffffffffffffff811161082b57601f01601f191660200190565b929192611222826111fa565b9161123060405193846111d8565b82948184528183011161024e578281602093846000960137010152565b3461024e57608036600319011261024e5760043561126a81610455565b60243561127681610455565b6064359167ffffffffffffffff831161024e573660238401121561024e576112ab6104c1933690602481600401359101611216565b91604435916119ad565b3461024e57604036600319011261024e5761131960206004356112d781610455565b6040516345dbfbe360e11b8152600f600482015260106024808301919091526001600160a01b0390921660448201529035606482015291829081906084820190565b03817388dB9e47d866DF27822912eB2395B6DC18B4513a5af49081156105f95760009161134c575b604051828152602090f35b6020813d8211611377575b81611364602093836111d8565b81010312610ba15751905061039a611341565b3d9150611357565b3461024e57602036600319011261024e576004356000818152600260205260409020546001600160a01b03161561142e576000818152600d6020526040808220905163346caf3d60e11b815292839182916113dd9160048401612436565b0381730392e14175A34d80040a4D265AF15676d9d90b065af480156105f95761039a91600091611415575b506040519182918261032e565b611428913d8091833e610f2381836111d8565b38611408565b60405163df4d604f60e01b8152600490fd5b3461024e57604036600319011261024e576114a4602060043561146281610455565b6040516361dae5a760e11b8152600f600482015260106024808301919091526001600160a01b0390921660448201529035606482015291829081906084820190565b03817388dB9e47d866DF27822912eB2395B6DC18B4513a5af49081156105f9576000916114d9575b6040518215158152602090f35b6020813d821161150e575b816114f1602093836111d8565b81010312610ba15761039a91505161150881610cff565b906114cc565b3d91506114e4565b3461024e57602036600319011261024e5760043561153381610455565b60018060a01b0316600052600f602052602060ff604060002054166040519015158152f35b3461024e57604036600319011261024e57602060ff6115b460043561157c81610455565b6024359061158982610455565b60018060a01b03166000526005845260406000209060018060a01b0316600052602052604060002090565b54166040519015158152f35b3461024e57602036600319011261024e576004356115dd81610455565b6115e561168d565b6001600160a01b0390811690811561163957600a54826bffffffffffffffffffffffff60a01b821617600a55167f8be0079c531659141344cd1fd0a4f28419497f9722a3daafe3b4186f6b6457e0600080a3005b60405162461bcd60e51b815260206004820152602660248201527f4f776e61626c653a206e6577206f776e657220697320746865207a65726f206160448201526564647265737360d01b6064820152608490fd5b600a546001600160a01b031633036116a157565b606460405162461bcd60e51b815260206004820152602060248201527f4f776e61626c653a2063616c6c6572206973206e6f7420746865206f776e65726044820152fd5b6001600160a01b0316801561170557600052600360205260406000205490565b60405162461bcd60e51b815260206004820152602960248201527f4552433732313a2061646472657373207a65726f206973206e6f7420612076616044820152683634b21037bbb732b960b91b6064820152608490fd5b1561176357565b60405162461bcd60e51b815260206004820152601860248201527f4552433732313a20696e76616c696420746f6b656e20494400000000000000006044820152606490fd5b6000908152600260205260409020546001600160a01b031661033f81151561175c565b90600182811c921680156117fb575b60208310146117e557565b634e487b7160e01b600052602260045260246000fd5b91607f16916117da565b9060009291805491611816836117cb565b9182825260019384811690816000146118785750600114611838575b50505050565b90919394506000526020928360002092846000945b838610611864575050505001019038808080611832565b80548587018301529401938590820161184d565b9294505050602093945060ff191683830152151560051b01019038808080611832565b156118a257565b60405162461bcd60e51b815260206004820152603d60248201527f4552433732313a20617070726f76652063616c6c6572206973206e6f7420746f60448201527f6b656e206f776e6572206f7220617070726f76656420666f7220616c6c0000006064820152608490fd5b600081815260026020526040902054611930906001600160a01b0316151561175c565b6000908152600460205260409020546001600160a01b031690565b1561195257565b60405162461bcd60e51b815260206004820152602d60248201527f4552433732313a2063616c6c6572206973206e6f7420746f6b656e206f776e6560448201526c1c881bdc88185c1c1c9bdd9959609a1b6064820152608490fd5b906119d19392916119c16107308433611a48565b6119cc838383611b1a565b611d74565b156119d857565b60405162461bcd60e51b8152806119f1600482016119f5565b0390fd5b60809060208152603260208201527f4552433732313a207472616e7366657220746f206e6f6e20455243373231526560408201527131b2b4bb32b91034b6b83632b6b2b73a32b960711b60608201520190565b6001600160a01b0380611a5a846117a8565b169281831692848414948515611a90575b50508315611a7a575b50505090565b611a869192935061190d565b1614388080611a74565b60009081526005602090815260408083206001600160a01b03949094168352929052205460ff1693503880611a6b565b15611ac757565b60405162461bcd60e51b815260206004820152602560248201527f4552433732313a207472616e736665722066726f6d20696e636f72726563742060448201526437bbb732b960d91b6064820152608490fd5b611b3e90611b27846117a8565b6001600160a01b0382811693909182168414611ac0565b8316928315611c3d57611bbc82611b598784611c1696611e89565b611b7b85611b75611b698a6117a8565b6001600160a01b031690565b14611ac0565b611ba2611b92886000526004602052604060002090565b80546001600160a01b0319169055565b6001600160a01b0316600090815260036020526040902090565b80546000190190556001600160a01b038116600090815260036020526040902060018154019055611bf7856000526002602052604060002090565b80546001600160a01b0319166001600160a01b03909216919091179055565b7fddf252ad1be2c89b69c2b068fc378daa952ba7f163c4a11628f55a4df523b3ef600080a4565b60405162461bcd60e51b8152602060048201526024808201527f4552433732313a207472616e7366657220746f20746865207a65726f206164646044820152637265737360e01b6064820152608490fd5b600082815260046020526040902080546001600160a01b0319166001600160a01b0383161790556001600160a01b0380611cc7846117a8565b169116907f8c5be1e5ebec7d5bd14f71427d1e84f3dd0314c0f7b2291e5b200ac8c7c3b925600080a4565b9081602091031261024e575161033f8161023c565b6001600160a01b03918216815291166020820152604081019190915260806060820181905261033f92910190610309565b6040513d6000823e3d90fd5b3d15611d6f573d90611d55826111fa565b91611d6360405193846111d8565b82523d6000602084013e565b606090565b92909190823b15611e2e57611da7926020926000604051809681958294630a85bd0160e11b9a8b85523360048601611d07565b03926001600160a01b03165af160009181611dfe575b50611df057611dca611d44565b80519081611deb5760405162461bcd60e51b8152806119f1600482016119f5565b602001fd5b6001600160e01b0319161490565b611e2091925060203d8111611e27575b611e1881836111d8565b810190611cf2565b9038611dbd565b503d611e0e565b50505050600190565b634e487b7160e01b600052603260045260246000fd5b600e54811015611e8457600e6000527fbb7b4a454dc3493923482f07822329ed19e8244eff582cc204f8554c3620c3fd0190600090565b611e37565b9091906001600160a01b038082169182611ece5750611ea783611fe1565b831680611ebc575050611eba915061204f565b565b03611ec5575050565b611eba91611fa9565b8185168303611ede575b50611ea7565b611ee7816116e5565b600019810190811161110257611f3f60009286845260076020526040842054838103611f50575b5083611f24886000526007602052604060002090565b556001600160a01b0316600090815260066020526040902090565b908252602052604081205538611ed8565b868552600660205260408520848652602052611fa26040862054611f868460018060a01b03166000526006602052604060002090565b8388526020528060408820556000526007602052604060002090565b5538611f0e565b604090611fb5816116e5565b9260009160018060a01b0316825260066020528282208483526020528083832055815260076020522055565b60085481600052600960205280604060002055600160401b81101561082b576001810180600855811015611e845760086000527ff3f7a9fe364faab93b216da50a3214154f22a0a2b415b23a84c8169e8b636ee30155565b634e487b7160e01b600052601160045260246000fd5b6008805460001992838201828111611102576000928284526009602052806040852054921015611e84578484527ff3f7a9fe364faab93b216da50a3214154f22a0a2b415b23a84c8169e8b636ee2928382015491831015611e845784926120eb6120fc9388865280837ff3f7a9fe364faab93b216da50a3214154f22a0a2b415b23a84c8169e8b636ee301556000526009602052604060002090565b556000526009602052604060002090565b5582549384156121195784019380851015611e8457838352015555565b634e487b7160e01b83526031600452602483fd5b1561213457565b60405162461bcd60e51b815260206004820152601c60248201527f4552433732313a20746f6b656e20616c7265616479206d696e746564000000006044820152606490fd5b6001600160a01b0381169081156122455760008381526002602052604090205461221d91906121b4906001600160a01b031615155b1561212d565b6121bd84611fe1565b6121c78482611fa9565b6000848152600260205260409020546121ea906001600160a01b031615156121ae565b6001600160a01b038116600090815260036020526040902060018154019055611bf7846000526002602052604060002090565b60007fddf252ad1be2c89b69c2b068fc378daa952ba7f163c4a11628f55a4df523b3ef8180a4565b606460405162461bcd60e51b815260206004820152602060248201527f4552433732313a206d696e7420746f20746865207a65726f20616464726573736044820152fd5b600e5490818152602080910191600e6000527fbb7b4a454dc3493923482f07822329ed19e8244eff582cc204f8554c3620c3fd916000905b8282106122cf575050505090565b909192936001604081926122f78854848060a01b038116835260ff8784019160a01c1661093b565b019501939201906122c1565b916123149061231992943691611216565b6126c9565b90612323826117a8565b6001600160a01b039182169116036123c557336000908152600f6020526040902061234d906104eb565b156123b3573360009081526010602052604090206123779082905b90600052602052604060002090565b546123a1573360009081526010602052604090206123959190612368565b55630a85bd0160e11b90565b604051630ed9148160e01b8152600490fd5b60405163249b262960e01b8152600490fd5b6040516359bc8af160e01b8152600490fd5b60208183031261024e5780519067ffffffffffffffff821161024e570181601f8201121561024e57805161240a816111fa565b9261241860405194856111d8565b8184526020828401011161024e5761033f91602080850191016102e6565b9291906060906080855261244c60808601612289565b601060208701528581036040870152815481526001820154602082015260a060408201526080600461249761248760a0850160028701611805565b8481038786015260038601611805565b930154910152930152565b929190606090608085526124b860808601612289565b60106020870152858103604087015281518152602082015160208201526080806125046124f4604086015160a0604087015260a0860190610309565b8686015185820388870152610309565b930151910152930152565b60028210156109485752565b6001600160a01b0381166000908152600f602052604090205460ff16612645576001600160a01b0381166000908152600f60205260409020805460ff191660011790556040519161256b836111a0565b6001600160a01b038281168452926020810191612588908361250f565b600e54600160401b81101561082b578060016125a79201600e55611e4d565b94909461262f579051845491166001600160a01b03166001600160a01b03199091161783555190600282101561094857825460ff60a01b191660a09290921b60ff60a01b16919091179091556040516001600160a01b0390911681527f8201825e315682fab446f6a324905f8105e6d8c15c9f8267df13444975c54cd99080602081010390a1565b634e487b7160e01b600052600060045260246000fd5b6040516314d062a360e21b8152600490fd5b9190811015611e845760051b0190565b3561033f81610455565b3561033f81610df9565b90916040602092828482018583525201929160005b82811061269e575050505090565b90919293828060019287356126b281610455565b848060a01b03168152019501910192919092612690565b60208151106126d9576020015190565b60405163605babf960e01b8152600490fdfea26469706673582212201f4e2b8946909640cffc68129e7db680ff4a8d03ab03cf725c30f40570e3ad2664736f6c63430008120033",
  "deployedBytecode": "0x6080604052600436101561001257600080fd5b60003560e01c806301ffc9a71461023757806306fdde0314610232578063081812fc1461022d578063095ea7b3146102285780631249c58b1461022357806312fde4b71461021e578063150b7a021461021957806318160ddd1461021457806323b872dd1461020f5780632f745c591461020a57806342842e0e14610205578063476343ee146102005780634f6ccce7146101fb578063528088cd146101f65780636352211e146101f157806370a08231146101ec578063715018a6146101e75780637cb3b0bd146101e25780638da5cb5b146101dd5780639457e3ad146101d857806395d89b41146101d3578063a22cb465146101ce578063a2b4df33146101c9578063a2d6c6da146101c4578063a42dce80146101bf578063a5ff125f146101ba578063b761fdb1146101b5578063b88d4fde146101b0578063c2365a40146101ab578063c87b56dd146101a6578063ca3855f6146101a1578063d1cb8c691461019c578063e985e9c5146101975763f2fde38b1461019257600080fd5b6115c0565b611558565b611516565b611440565b61137f565b6112b5565b61124d565b61112b565b611024565b610f32565b610e3d565b610e03565b610d09565b610c5a565b610bce565b610ba5565b610b20565b610ac2565b610a93565b610a75565b6109bb565b610890565b610830565b6107f1565b61073a565b610711565b6106c7565b610639565b610610565b610547565b610466565b610425565b610342565b610253565b6001600160e01b031981160361024e57565b600080fd5b3461024e57602036600319011261024e5760206004356102728161023c565b63ffffffff60e01b1663780e9d6360e01b8114908115610298575b506040519015158152f35b6380ac58cd60e01b8114915081156102ca575b81156102b9575b503861028d565b6301ffc9a760e01b149050386102b2565b635b5e139f60e01b811491506102ab565b600091031261024e57565b60005b8381106102f95750506000910152565b81810151838201526020016102e9565b90602091610322815180928185528580860191016102e6565b601f01601f1916010190565b90602061033f928181520190610309565b90565b3461024e576000806003193601126104225760405190808054610364816117cb565b808552916001918083169081156103f8575060011461039e575b61039a8561038e818703826111d8565b6040519182918261032e565b0390f35b80809450527f290decd9548b62a8d60345a988386fc84ba6bc95484008f6362f93160ef3e5635b8284106103e057505050810160200161038e8261039a61037e565b805460208587018101919091529093019281016103c5565b86955061039a9693506020925061038e94915060ff191682840152151560051b820101929361037e565b80fd5b3461024e57602036600319011261024e57602061044360043561190d565b6040516001600160a01b039091168152f35b6001600160a01b0381160361024e57565b3461024e57604036600319011261024e5760043561048381610455565b60243561048f816117a8565b916001600160a01b0380841690821681146104f8576104c1936104bc9133149081156104c3575b5061189b565b611c8e565b005b6001600160a01b0316600090815260056020908152604080832033845290915290206104f291505b5460ff1690565b386104b6565b60405162461bcd60e51b815260206004820152602160248201527f4552433732313a20617070726f76616c20746f2063757272656e74206f776e656044820152603960f91b6064820152608490fd5b6000806003193601126104225766470de4df82000034036105fe576105706001600c5401600c55565b600c5461057d8133612179565b73__$d503fc7fc259a413f130539f8fbb89f3b9$__91823b156104225760405163391b088d60e01b8152600d60048201526024810183905292839060449082905af49182156105f95761039a926105e0575b506040519081529081906020820190565b806105ed6105f39261118c565b806102db565b386105cf565b611d38565b60405163198d8b9f60e01b8152600490fd5b3461024e57600036600319011261024e57600b546040516001600160a01b039091168152602090f35b3461024e57608036600319011261024e57610655600435610455565b60243561066181610455565b60643567ffffffffffffffff80821161024e573660238301121561024e57816004013590811161024e57366024828401011161024e5761039a9260246106ac93019060443590612303565b6040516001600160e01b031990911681529081906020820190565b3461024e57600036600319011261024e576020600854604051908152f35b606090600319011261024e576004356106fd81610455565b9060243561070a81610455565b9060443590565b3461024e576104c1610722366106e5565b916107356107308433611a48565b61194b565b611b1a565b3461024e57604036600319011261024e5760043561075781610455565b60243590610764816116e5565b821015610798576001600160a01b031660009081526006602090815260408083209383529281529082902054915191825290f35b60405162461bcd60e51b815260206004820152602b60248201527f455243373231456e756d657261626c653a206f776e657220696e646578206f7560448201526a74206f6620626f756e647360a81b6064820152608490fd5b3461024e576107ff366106e5565b60405191602083019383851067ffffffffffffffff86111761082b576104c194604052600084526119ad565b611176565b3461024e5760008060031936011261042257471561087e578080808060018060a01b03600b541647905af1610863611d44565b501561086c5780f35b60405163e56baab760e01b8152600490fd5b604051630b264f8360e31b8152600490fd5b3461024e57602036600319011261024e576004356008548110156108e15760086000527ff3f7a9fe364faab93b216da50a3214154f22a0a2b415b23a84c8169e8b636ee30154604051908152602090f35b60405162461bcd60e51b815260206004820152602c60248201527f455243373231456e756d657261626c653a20676c6f62616c20696e646578206f60448201526b7574206f6620626f756e647360a01b6064820152608490fd5b9060028210156109485752565b634e487b7160e01b600052602160045260246000fd5b60208082019080835283518092528060408094019401926000905b83821061098857505050505090565b909192939483826001926109ae838a51868060a01b03815116845201518483019061093b565b0196019493920190610979565b3461024e57600036600319011261024e57600e5467ffffffffffffffff811161082b5760409081519060206109f5818360051b01846111d8565b81835280830190600e6000527fbb7b4a454dc3493923482f07822329ed19e8244eff582cc204f8554c3620c3fd6000925b848410610a3a5786518061039a888261095e565b60018381928951610a4a816111a0565b610a6760ff8754868060a01b038116845260a01c1684830161250f565b815201920193019290610a26565b3461024e57602036600319011261024e5760206104436004356117a8565b3461024e57602036600319011261024e576020610aba600435610ab581610455565b6116e5565b604051908152f35b3461024e5760008060031936011261042257610adc61168d565b600a80546001600160a01b0319811690915581906001600160a01b03167f8be0079c531659141344cd1fd0a4f28419497f9722a3daafe3b4186f6b6457e08280a380f35b3461024e57600060203660031901126104225773__$e3733dcc2607fcfb223e547dc44a4a0bca$__803b15610ba15781604051809263efa9872960e01b8252606060048301528180610b7460648201612289565b60106024830152600435604483015203915af480156105f957610b95575080f35b610b9e9061118c565b80f35b5080fd5b3461024e57600036600319011261024e57600a546040516001600160a01b039091168152602090f35b3461024e576000604036600319011261042257600435610bed81610455565b8173__$e3733dcc2607fcfb223e547dc44a4a0bca$__91823b15610ba15760405163c6ebe1a360e01b8152600f600482015260106024808301919091526001600160a01b039290921660448201529035606482015291829060849082905af480156105f957610b95575080f35b3461024e576000806003193601126104225760405190806001805491610c7f836117cb565b808652928281169081156103f85750600114610ca55761039a8561038e818703826111d8565b92508083527fb10e2d527612073b26eecdfd717e6a320cf44b4afac2b0732d9fcbe2b7fa0cf65b828410610ce757505050810160200161038e8261039a61037e565b80546020858701810191909152909301928101610ccc565b8015150361024e57565b3461024e57604036600319011261024e57600435610d2681610455565b602435610d3281610cff565b6001600160a01b03821691338314610db45781610d71610d829233600052600560205260406000209060018060a01b0316600052602052604060002090565b9060ff801983541691151516179055565b604051901515815233907f17307eab39ab6107e8899845ad3d59bd9653f200f220920489ca2b5937696c3190602090a3005b60405162461bcd60e51b815260206004820152601960248201527f4552433732313a20617070726f766520746f2063616c6c6572000000000000006044820152606490fd5b6002111561024e57565b3461024e57604036600319011261024e576104c1600435610e2381610455565b60243590610e3082610df9565b610e3861168d565b61251b565b3461024e57602036600319011261024e57610ed860043580600052600d60205260006040918282206004845191610e73836111bc565b80548352600181015460208401528551610e9b81610e948160028601611805565b03826111d8565b868401528551610eb281610e948160038601611805565b606084015201546080820152835163175020f560e21b81529485928392600484016124a2565b038173__$274925a401284967f66b0c66a81bd03754$__5af49081156105f95761039a92600092610f0f575b50519182918261032e565b610f2b91923d8091833e610f2381836111d8565b8101906123d7565b9038610f04565b3461024e57602036600319011261024e57600435610f4f81610455565b610f5761168d565b600b54906001600160a01b038083169082168015610fe157818114610fcf576001600160a01b031993909316909217600b55604080516001600160a01b0393841681529190921660208201527f649c5e3d0ed183894196148e193af316452b0037e77d2ff0fef23b7dc722bed091819081015b0390a1005b6040516348c41f9b60e01b8152600490fd5b604051630503d1d560e41b8152600490fd5b9181601f8401121561024e5782359167ffffffffffffffff831161024e576020808501948460051b01011161024e57565b3461024e57604036600319011261024e5767ffffffffffffffff60043581811161024e57611056903690600401610ff3565b909160243590811161024e57611070903690600401610ff3565b929061107a61168d565b8215611119578383036111075760005b8381106110c2576040517f32f2370e0dc4460c7df1749be2f9ddafd4c5f97d6a543e7c5ea205d02d49e60a9080610fca87878361267b565b6110f16110d86110d3838787612657565b612667565b6110eb6110e6848987612657565b612671565b9061251b565b60001981146111025760010161108a565b612039565b6040516308dd6a9360e41b8152600490fd5b604051637c7a2a9560e01b8152600490fd5b3461024e57604036600319011261024e5760043561114881610455565b60018060a01b0316600052601060205260406000206024356000526020526020604060002054604051908152f35b634e487b7160e01b600052604160045260246000fd5b67ffffffffffffffff811161082b57604052565b6040810190811067ffffffffffffffff82111761082b57604052565b60a0810190811067ffffffffffffffff82111761082b57604052565b90601f8019910116810190811067ffffffffffffffff82111761082b57604052565b67ffffffffffffffff811161082b57601f01601f191660200190565b929192611222826111fa565b9161123060405193846111d8565b82948184528183011161024e578281602093846000960137010152565b3461024e57608036600319011261024e5760043561126a81610455565b60243561127681610455565b6064359167ffffffffffffffff831161024e573660238401121561024e576112ab6104c1933690602481600401359101611216565b91604435916119ad565b3461024e57604036600319011261024e5761131960206004356112d781610455565b6040516345dbfbe360e11b8152600f600482015260106024808301919091526001600160a01b0390921660448201529035606482015291829081906084820190565b038173__$e3733dcc2607fcfb223e547dc44a4a0bca$__5af49081156105f95760009161134c575b604051828152602090f35b6020813d8211611377575b81611364602093836111d8565b81010312610ba15751905061039a611341565b3d9150611357565b3461024e57602036600319011261024e576004356000818152600260205260409020546001600160a01b03161561142e576000818152600d6020526040808220905163346caf3d60e11b815292839182916113dd9160048401612436565b038173__$274925a401284967f66b0c66a81bd03754$__5af480156105f95761039a91600091611415575b506040519182918261032e565b611428913d8091833e610f2381836111d8565b38611408565b60405163df4d604f60e01b8152600490fd5b3461024e57604036600319011261024e576114a4602060043561146281610455565b6040516361dae5a760e11b8152600f600482015260106024808301919091526001600160a01b0390921660448201529035606482015291829081906084820190565b038173__$e3733dcc2607fcfb223e547dc44a4a0bca$__5af49081156105f9576000916114d9575b6040518215158152602090f35b6020813d821161150e575b816114f1602093836111d8565b81010312610ba15761039a91505161150881610cff565b906114cc565b3d91506114e4565b3461024e57602036600319011261024e5760043561153381610455565b60018060a01b0316600052600f602052602060ff604060002054166040519015158152f35b3461024e57604036600319011261024e57602060ff6115b460043561157c81610455565b6024359061158982610455565b60018060a01b03166000526005845260406000209060018060a01b0316600052602052604060002090565b54166040519015158152f35b3461024e57602036600319011261024e576004356115dd81610455565b6115e561168d565b6001600160a01b0390811690811561163957600a54826bffffffffffffffffffffffff60a01b821617600a55167f8be0079c531659141344cd1fd0a4f28419497f9722a3daafe3b4186f6b6457e0600080a3005b60405162461bcd60e51b815260206004820152602660248201527f4f776e61626c653a206e6577206f776e657220697320746865207a65726f206160448201526564647265737360d01b6064820152608490fd5b600a546001600160a01b031633036116a157565b606460405162461bcd60e51b815260206004820152602060248201527f4f776e61626c653a2063616c6c6572206973206e6f7420746865206f776e65726044820152fd5b6001600160a01b0316801561170557600052600360205260406000205490565b60405162461bcd60e51b815260206004820152602960248201527f4552433732313a2061646472657373207a65726f206973206e6f7420612076616044820152683634b21037bbb732b960b91b6064820152608490fd5b1561176357565b60405162461bcd60e51b815260206004820152601860248201527f4552433732313a20696e76616c696420746f6b656e20494400000000000000006044820152606490fd5b6000908152600260205260409020546001600160a01b031661033f81151561175c565b90600182811c921680156117fb575b60208310146117e557565b634e487b7160e01b600052602260045260246000fd5b91607f16916117da565b9060009291805491611816836117cb565b9182825260019384811690816000146118785750600114611838575b50505050565b90919394506000526020928360002092846000945b838610611864575050505001019038808080611832565b80548587018301529401938590820161184d565b9294505050602093945060ff191683830152151560051b01019038808080611832565b156118a257565b60405162461bcd60e51b815260206004820152603d60248201527f4552433732313a20617070726f76652063616c6c6572206973206e6f7420746f60448201527f6b656e206f776e6572206f7220617070726f76656420666f7220616c6c0000006064820152608490fd5b600081815260026020526040902054611930906001600160a01b0316151561175c565b6000908152600460205260409020546001600160a01b031690565b1561195257565b60405162461bcd60e51b815260206004820152602d60248201527f4552433732313a2063616c6c6572206973206e6f7420746f6b656e206f776e6560448201526c1c881bdc88185c1c1c9bdd9959609a1b6064820152608490fd5b906119d19392916119c16107308433611a48565b6119cc838383611b1a565b611d74565b156119d857565b60405162461bcd60e51b8152806119f1600482016119f5565b0390fd5b60809060208152603260208201527f4552433732313a207472616e7366657220746f206e6f6e20455243373231526560408201527131b2b4bb32b91034b6b83632b6b2b73a32b960711b60608201520190565b6001600160a01b0380611a5a846117a8565b169281831692848414948515611a90575b50508315611a7a575b50505090565b611a869192935061190d565b1614388080611a74565b60009081526005602090815260408083206001600160a01b03949094168352929052205460ff1693503880611a6b565b15611ac757565b60405162461bcd60e51b815260206004820152602560248201527f4552433732313a207472616e736665722066726f6d20696e636f72726563742060448201526437bbb732b960d91b6064820152608490fd5b611b3e90611b27846117a8565b6001600160a01b0382811693909182168414611ac0565b8316928315611c3d57611bbc82611b598784611c1696611e89565b611b7b85611b75611b698a6117a8565b6001600160a01b031690565b14611ac0565b611ba2611b92886000526004602052604060002090565b80546001600160a01b0319169055565b6001600160a01b0316600090815260036020526040902090565b80546000190190556001600160a01b038116600090815260036020526040902060018154019055611bf7856000526002602052604060002090565b80546001600160a01b0319166001600160a01b03909216919091179055565b7fddf252ad1be2c89b69c2b068fc378daa952ba7f163c4a11628f55a4df523b3ef600080a4565b60405162461bcd60e51b8152602060048201526024808201527f4552433732313a207472616e7366657220746f20746865207a65726f206164646044820152637265737360e01b6064820152608490fd5b600082815260046020526040902080546001600160a01b0319166001600160a01b0383161790556001600160a01b0380611cc7846117a8565b169116907f8c5be1e5ebec7d5bd14f71427d1e84f3dd0314c0f7b2291e5b200ac8c7c3b925600080a4565b9081602091031261024e575161033f8161023c565b6001600160a01b03918216815291166020820152604081019190915260806060820181905261033f92910190610309565b6040513d6000823e3d90fd5b3d15611d6f573d90611d55826111fa565b91611d6360405193846111d8565b82523d6000602084013e565b606090565b92909190823b15611e2e57611da7926020926000604051809681958294630a85bd0160e11b9a8b85523360048601611d07565b03926001600160a01b03165af160009181611dfe575b50611df057611dca611d44565b80519081611deb5760405162461bcd60e51b8152806119f1600482016119f5565b602001fd5b6001600160e01b0319161490565b611e2091925060203d8111611e27575b611e1881836111d8565b810190611cf2565b9038611dbd565b503d611e0e565b50505050600190565b634e487b7160e01b600052603260045260246000fd5b600e54811015611e8457600e6000527fbb7b4a454dc3493923482f07822329ed19e8244eff582cc204f8554c3620c3fd0190600090565b611e37565b9091906001600160a01b038082169182611ece5750611ea783611fe1565b831680611ebc575050611eba915061204f565b565b03611ec5575050565b611eba91611fa9565b8185168303611ede575b50611ea7565b611ee7816116e5565b600019810190811161110257611f3f60009286845260076020526040842054838103611f50575b5083611f24886000526007602052604060002090565b556001600160a01b0316600090815260066020526040902090565b908252602052604081205538611ed8565b868552600660205260408520848652602052611fa26040862054611f868460018060a01b03166000526006602052604060002090565b8388526020528060408820556000526007602052604060002090565b5538611f0e565b604090611fb5816116e5565b9260009160018060a01b0316825260066020528282208483526020528083832055815260076020522055565b60085481600052600960205280604060002055600160401b81101561082b576001810180600855811015611e845760086000527ff3f7a9fe364faab93b216da50a3214154f22a0a2b415b23a84c8169e8b636ee30155565b634e487b7160e01b600052601160045260246000fd5b6008805460001992838201828111611102576000928284526009602052806040852054921015611e84578484527ff3f7a9fe364faab93b216da50a3214154f22a0a2b415b23a84c8169e8b636ee2928382015491831015611e845784926120eb6120fc9388865280837ff3f7a9fe364faab93b216da50a3214154f22a0a2b415b23a84c8169e8b636ee301556000526009602052604060002090565b556000526009602052604060002090565b5582549384156121195784019380851015611e8457838352015555565b634e487b7160e01b83526031600452602483fd5b1561213457565b60405162461bcd60e51b815260206004820152601c60248201527f4552433732313a20746f6b656e20616c7265616479206d696e746564000000006044820152606490fd5b6001600160a01b0381169081156122455760008381526002602052604090205461221d91906121b4906001600160a01b031615155b1561212d565b6121bd84611fe1565b6121c78482611fa9565b6000848152600260205260409020546121ea906001600160a01b031615156121ae565b6001600160a01b038116600090815260036020526040902060018154019055611bf7846000526002602052604060002090565b60007fddf252ad1be2c89b69c2b068fc378daa952ba7f163c4a11628f55a4df523b3ef8180a4565b606460405162461bcd60e51b815260206004820152602060248201527f4552433732313a206d696e7420746f20746865207a65726f20616464726573736044820152fd5b600e5490818152602080910191600e6000527fbb7b4a454dc3493923482f07822329ed19e8244eff582cc204f8554c3620c3fd916000905b8282106122cf575050505090565b909192936001604081926122f78854848060a01b038116835260ff8784019160a01c1661093b565b019501939201906122c1565b916123149061231992943691611216565b6126c9565b90612323826117a8565b6001600160a01b039182169116036123c557336000908152600f6020526040902061234d906104eb565b156123b3573360009081526010602052604090206123779082905b90600052602052604060002090565b546123a1573360009081526010602052604090206123959190612368565b55630a85bd0160e11b90565b604051630ed9148160e01b8152600490fd5b60405163249b262960e01b8152600490fd5b6040516359bc8af160e01b8152600490fd5b60208183031261024e5780519067ffffffffffffffff821161024e570181601f8201121561024e57805161240a816111fa565b9261241860405194856111d8565b8184526020828401011161024e5761033f91602080850191016102e6565b9291906060906080855261244c60808601612289565b601060208701528581036040870152815481526001820154602082015260a060408201526080600461249761248760a0850160028701611805565b8481038786015260038601611805565b930154910152930152565b929190606090608085526124b860808601612289565b60106020870152858103604087015281518152602082015160208201526080806125046124f4604086015160a0604087015260a0860190610309565b8686015185820388870152610309565b930151910152930152565b60028210156109485752565b6001600160a01b0381166000908152600f602052604090205460ff16612645576001600160a01b0381166000908152600f60205260409020805460ff191660011790556040519161256b836111a0565b6001600160a01b038281168452926020810191612588908361250f565b600e54600160401b81101561082b578060016125a79201600e55611e4d565b94909461262f579051845491166001600160a01b03166001600160a01b03199091161783555190600282101561094857825460ff60a01b191660a09290921b60ff60a01b16919091179091556040516001600160a01b0390911681527f8201825e315682fab446f6a324905f8105e6d8c15c9f8267df13444975c54cd99080602081010390a1565b634e487b7160e01b600052600060045260246000fd5b6040516314d062a360e21b8152600490fd5b9190811015611e845760051b0190565b3561033f81610455565b3561033f81610df9565b90916040602092828482018583525201929160005b82811061269e575050505090565b90919293828060019287356126b281610455565b848060a01b03168152019501910192919092612690565b60208151106126d9576020015190565b60405163605babf960e01b8152600490fdfea26469706673582212201f4e2b8946909640cffc68129e7db680ff4a8d03ab03cf725c30f40570e3ad2664736f6c63430008120033",
  "libraries": {
    "AttributesGen": "0x14C37E3018aA72A788d904604dB105Ff8d307f5E",
    "SnowmanMetadata": "0x0392e14175A34d80040a4D265AF15676d9d90b06",
    "AccessoryManager": "0x88dB9e47d866DF27822912eB2395B6DC18B4513a"
  },
  "devdoc": {
    "author": "Valentine Orga",
    "events": {
      "AccessoriesAdded(address[])": {
        "details": "Accessories can only be added by contract owner",
        "params": {
          "accessories": "Address of accessories"
        }
      },
      "AccessoriesRemoved((address,uint8)[],uint256)": {
        "details": "Accessories can only be removed by the Snowman owner",
        "params": {
          "accessories": "Accessories removed",
          "snowmanId": "Id of Snowman with accessories"
        }
      },
      "AccessoryAdded(address)": {
        "details": "Accessory can only be added by contract owner",
        "params": {
          "accessory": "Address of accessory"
        }
      },
      "AccessoryRemoved(address,uint256)": {
        "details": "Accessory can only be removed by the Snowman owner",
        "params": {
          "accessory": "Address of accessory removed",
          "snowmanId": "Id of Snowman with accessory"
        }
      },
      "Approval(address,address,uint256)": {
        "details": "Emitted when `owner` enables `approved` to manage the `tokenId` token."
      },
      "ApprovalForAll(address,address,bool)": {
        "details": "Emitted when `owner` enables or disables (`approved`) `operator` to manage all of its assets."
      },
      "FeesWithdrawn(uint256)": {
        "params": {
          "amount": "Amount of fees withdrawn"
        }
      },
      "Transfer(address,address,uint256)": {
        "details": "Emitted when `tokenId` token is transferred from `from` to `to`."
      }
    },
    "kind": "dev",
    "methods": {
      "accessoryId(address,uint256)": {
        "params": {
          "accessory": "Address of accessory",
          "snowmanId": "Id of Snowman"
        }
      },
      "addAccessory(address,uint8)": {
        "details": "Can only be added by contract owner",
        "params": {
          "accessory": "Address of accessory",
          "position": "Determines which position(Foreground or Background) to place the accessory"
        }
      },
      "approve(address,uint256)": {
        "details": "See {IERC721-approve}."
      },
      "balanceOf(address)": {
        "details": "See {IERC721-balanceOf}."
      },
      "getApproved(uint256)": {
        "details": "See {IERC721-getApproved}."
      },
      "hasAccessory(address,uint256)": {
        "params": {
          "accessory": "Address of accessory",
          "snowmanId": "Id of Snowman to check"
        }
      },
      "isAccessoryAvailable(address)": {
        "details": "The contract owner determines if accessory is available or not",
        "params": {
          "accessory": "Address of accessory"
        }
      },
      "isApprovedForAll(address,address)": {
        "details": "See {IERC721-isApprovedForAll}."
      },
      "name()": {
        "details": "See {IERC721Metadata-name}."
      },
      "owner()": {
        "details": "Returns the address of the current owner."
      },
      "ownerOf(uint256)": {
        "details": "See {IERC721-ownerOf}."
      },
      "removeAccessory(address,uint256)": {
        "details": "Can only be removed by the Snowman owner",
        "params": {
          "accessory": "Address of accessory",
          "snowmanId": "Id of Snowman to remove accessory from"
        }
      },
      "removeAllAccessories(uint256)": {
        "details": "Can only be removed by the Snowman owner",
        "params": {
          "snowmanId": "Id of snowman to remove all accessories from"
        }
      },
      "renderTokenById(uint256)": {
        "params": {
          "tokenId": "Id of Snowman"
        }
      },
      "renounceOwnership()": {
        "details": "Leaves the contract without owner. It will not be possible to call `onlyOwner` functions. Can only be called by the current owner. NOTE: Renouncing ownership will leave the contract without an owner, thereby disabling any functionality that is only available to the owner."
      },
      "safeTransferFrom(address,address,uint256)": {
        "details": "See {IERC721-safeTransferFrom}."
      },
      "safeTransferFrom(address,address,uint256,bytes)": {
        "details": "See {IERC721-safeTransferFrom}."
      },
      "setApprovalForAll(address,bool)": {
        "details": "See {IERC721-setApprovalForAll}."
      },
      "setFeeCollector(address)": {
        "params": {
          "newFeeCollector": "Address of new fee collector"
        }
      },
      "supportsInterface(bytes4)": {
        "details": "See {IERC165-supportsInterface}."
      },
      "symbol()": {
        "details": "See {IERC721Metadata-symbol}."
      },
      "tokenByIndex(uint256)": {
        "details": "See {IERC721Enumerable-tokenByIndex}."
      },
      "tokenOfOwnerByIndex(address,uint256)": {
        "details": "See {IERC721Enumerable-tokenOfOwnerByIndex}."
      },
      "totalSupply()": {
        "details": "See {IERC721Enumerable-totalSupply}."
      },
      "transferFrom(address,address,uint256)": {
        "details": "See {IERC721-transferFrom}."
      },
      "transferOwnership(address)": {
        "details": "Transfers ownership of the contract to a new account (`newOwner`). Can only be called by the current owner."
      },
      "withdrawFees()": {
        "details": "Anyone can call this function"
      }
    },
    "title": "Snowman - ERC4883 Composable Snowman NFT",
    "version": 1
  },
  "userdoc": {
    "events": {
      "AccessoriesAdded(address[])": {
        "notice": "Emitted when multiple accessories have been added"
      },
      "AccessoriesRemoved((address,uint8)[],uint256)": {
        "notice": "Emitted when an accessory is removed from a Snowman"
      },
      "AccessoryAdded(address)": {
        "notice": "Emitted when an accessory has been added"
      },
      "AccessoryRemoved(address,uint256)": {
        "notice": "Emitted when an accessory is removed from a Snowman"
      },
      "FeesWithdrawn(uint256)": {
        "notice": "Emitted when fees are withdrawn"
      }
    },
    "kind": "user",
    "methods": {
      "accessoryId(address,uint256)": {
        "notice": "Returns the id of accessory added to a snowman"
      },
      "addAccessory(address,uint8)": {
        "notice": "Adds an accessory to Snowman for composition by Snowman owners"
      },
      "getAccessories()": {
        "notice": "Retrieves all accessories"
      },
      "getFeeCollector()": {
        "notice": "Retrieves the current mint fee collector"
      },
      "hasAccessory(address,uint256)": {
        "notice": "Returns `true` if an accessory has been added to a Snowman and `false` otherwise"
      },
      "isAccessoryAvailable(address)": {
        "notice": "Returns `true` if accessory is available for composition and `false` otherwise"
      },
      "mint()": {
        "notice": "Mints one snowman with dynamic attributes for 0.02 ETH"
      },
      "removeAccessory(address,uint256)": {
        "notice": "Removes an accessory from a Snowman"
      },
      "removeAllAccessories(uint256)": {
        "notice": "Removes all accessories from a Snowman"
      },
      "renderTokenById(uint256)": {
        "notice": "Returns the SVG image of Snowman"
      },
      "setFeeCollector(address)": {
        "notice": "Sets a new mint fee collector"
      },
      "withdrawFees()": {
        "notice": "Withdraws mint fees to fee collector's account"
      }
    },
    "notice": "Mint a unique snowman and compose with other accessories(NFTs) approved by the admin.",
    "version": 1
  },
  "storageLayout": {
    "storage": [
      {
        "astId": 141,
        "contract": "contracts/Snowman.sol:Snowman",
        "label": "_name",
        "offset": 0,
        "slot": "0",
        "type": "t_string_storage"
      },
      {
        "astId": 143,
        "contract": "contracts/Snowman.sol:Snowman",
        "label": "_symbol",
        "offset": 0,
        "slot": "1",
        "type": "t_string_storage"
      },
      {
        "astId": 147,
        "contract": "contracts/Snowman.sol:Snowman",
        "label": "_owners",
        "offset": 0,
        "slot": "2",
        "type": "t_mapping(t_uint256,t_address)"
      },
      {
        "astId": 151,
        "contract": "contracts/Snowman.sol:Snowman",
        "label": "_balances",
        "offset": 0,
        "slot": "3",
        "type": "t_mapping(t_address,t_uint256)"
      },
      {
        "astId": 155,
        "contract": "contracts/Snowman.sol:Snowman",
        "label": "_tokenApprovals",
        "offset": 0,
        "slot": "4",
        "type": "t_mapping(t_uint256,t_address)"
      },
      {
        "astId": 161,
        "contract": "contracts/Snowman.sol:Snowman",
        "label": "_operatorApprovals",
        "offset": 0,
        "slot": "5",
        "type": "t_mapping(t_address,t_mapping(t_address,t_bool))"
      },
      {
        "astId": 1191,
        "contract": "contracts/Snowman.sol:Snowman",
        "label": "_ownedTokens",
        "offset": 0,
        "slot": "6",
        "type": "t_mapping(t_address,t_mapping(t_uint256,t_uint256))"
      },
      {
        "astId": 1195,
        "contract": "contracts/Snowman.sol:Snowman",
        "label": "_ownedTokensIndex",
        "offset": 0,
        "slot": "7",
        "type": "t_mapping(t_uint256,t_uint256)"
      },
      {
        "astId": 1198,
        "contract": "contracts/Snowman.sol:Snowman",
        "label": "_allTokens",
        "offset": 0,
        "slot": "8",
        "type": "t_array(t_uint256)dyn_storage"
      },
      {
        "astId": 1202,
        "contract": "contracts/Snowman.sol:Snowman",
        "label": "_allTokensIndex",
        "offset": 0,
        "slot": "9",
        "type": "t_mapping(t_uint256,t_uint256)"
      },
      {
        "astId": 7,
        "contract": "contracts/Snowman.sol:Snowman",
        "label": "_owner",
        "offset": 0,
        "slot": "10",
        "type": "t_address"
      },
      {
        "astId": 3375,
        "contract": "contracts/Snowman.sol:Snowman",
        "label": "s_feeCollector",
        "offset": 0,
        "slot": "11",
        "type": "t_address_payable"
      },
      {
        "astId": 3378,
        "contract": "contracts/Snowman.sol:Snowman",
        "label": "s_tokenIds",
        "offset": 0,
        "slot": "12",
        "type": "t_struct(Counter)1946_storage"
      },
      {
        "astId": 3383,
        "contract": "contracts/Snowman.sol:Snowman",
        "label": "s_attributes",
        "offset": 0,
        "slot": "13",
        "type": "t_mapping(t_uint256,t_struct(Snowman)5507_storage)"
      },
      {
        "astId": 3387,
        "contract": "contracts/Snowman.sol:Snowman",
        "label": "s_accessories",
        "offset": 0,
        "slot": "14",
        "type": "t_array(t_struct(Accessory)5496_storage)dyn_storage"
      },
      {
        "astId": 3391,
        "contract": "contracts/Snowman.sol:Snowman",
        "label": "s_accessoriesAvailable",
        "offset": 0,
        "slot": "15",
        "type": "t_mapping(t_address,t_bool)"
      },
      {
        "astId": 3397,
        "contract": "contracts/Snowman.sol:Snowman",
        "label": "s_accessoriesById",
        "offset": 0,
        "slot": "16",
        "type": "t_mapping(t_address,t_mapping(t_uint256,t_uint256))"
      }
    ],
    "types": {
      "t_address": {
        "encoding": "inplace",
        "label": "address",
        "numberOfBytes": "20"
      },
      "t_address_payable": {
        "encoding": "inplace",
        "label": "address payable",
        "numberOfBytes": "20"
      },
      "t_array(t_struct(Accessory)5496_storage)dyn_storage": {
        "base": "t_struct(Accessory)5496_storage",
        "encoding": "dynamic_array",
        "label": "struct DataTypes.Accessory[]",
        "numberOfBytes": "32"
      },
      "t_array(t_uint256)dyn_storage": {
        "base": "t_uint256",
        "encoding": "dynamic_array",
        "label": "uint256[]",
        "numberOfBytes": "32"
      },
      "t_bool": {
        "encoding": "inplace",
        "label": "bool",
        "numberOfBytes": "1"
      },
      "t_enum(AccessoryPosition)5490": {
        "encoding": "inplace",
        "label": "enum DataTypes.AccessoryPosition",
        "numberOfBytes": "1"
      },
      "t_int256": {
        "encoding": "inplace",
        "label": "int256",
        "numberOfBytes": "32"
      },
      "t_mapping(t_address,t_bool)": {
        "encoding": "mapping",
        "key": "t_address",
        "label": "mapping(address => bool)",
        "numberOfBytes": "32",
        "value": "t_bool"
      },
      "t_mapping(t_address,t_mapping(t_address,t_bool))": {
        "encoding": "mapping",
        "key": "t_address",
        "label": "mapping(address => mapping(address => bool))",
        "numberOfBytes": "32",
        "value": "t_mapping(t_address,t_bool)"
      },
      "t_mapping(t_address,t_mapping(t_uint256,t_uint256))": {
        "encoding": "mapping",
        "key": "t_address",
        "label": "mapping(address => mapping(uint256 => uint256))",
        "numberOfBytes": "32",
        "value": "t_mapping(t_uint256,t_uint256)"
      },
      "t_mapping(t_address,t_uint256)": {
        "encoding": "mapping",
        "key": "t_address",
        "label": "mapping(address => uint256)",
        "numberOfBytes": "32",
        "value": "t_uint256"
      },
      "t_mapping(t_uint256,t_address)": {
        "encoding": "mapping",
        "key": "t_uint256",
        "label": "mapping(uint256 => address)",
        "numberOfBytes": "32",
        "value": "t_address"
      },
      "t_mapping(t_uint256,t_struct(Snowman)5507_storage)": {
        "encoding": "mapping",
        "key": "t_uint256",
        "label": "mapping(uint256 => struct DataTypes.Snowman)",
        "numberOfBytes": "32",
        "value": "t_struct(Snowman)5507_storage"
      },
      "t_mapping(t_uint256,t_uint256)": {
        "encoding": "mapping",
        "key": "t_uint256",
        "label": "mapping(uint256 => uint256)",
        "numberOfBytes": "32",
        "value": "t_uint256"
      },
      "t_string_storage": {
        "encoding": "bytes",
        "label": "string",
        "numberOfBytes": "32"
      },
      "t_struct(Accessory)5496_storage": {
        "encoding": "inplace",
        "label": "struct DataTypes.Accessory",
        "members": [
          {
            "astId": 5492,
            "contract": "contracts/Snowman.sol:Snowman",
            "label": "_address",
            "offset": 0,
            "slot": "0",
            "type": "t_address"
          },
          {
            "astId": 5495,
            "contract": "contracts/Snowman.sol:Snowman",
            "label": "position",
            "offset": 20,
            "slot": "0",
            "type": "t_enum(AccessoryPosition)5490"
          }
        ],
        "numberOfBytes": "32"
      },
      "t_struct(Counter)1946_storage": {
        "encoding": "inplace",
        "label": "struct Counters.Counter",
        "members": [
          {
            "astId": 1945,
            "contract": "contracts/Snowman.sol:Snowman",
            "label": "_value",
            "offset": 0,
            "slot": "0",
            "type": "t_uint256"
          }
        ],
        "numberOfBytes": "32"
      },
      "t_struct(Snowman)5507_storage": {
        "encoding": "inplace",
        "label": "struct DataTypes.Snowman",
        "members": [
          {
            "astId": 5498,
            "contract": "contracts/Snowman.sol:Snowman",
            "label": "eyeOffsetX",
            "offset": 0,
            "slot": "0",
            "type": "t_int256"
          },
          {
            "astId": 5500,
            "contract": "contracts/Snowman.sol:Snowman",
            "label": "eyeOffsetY",
            "offset": 0,
            "slot": "1",
            "type": "t_int256"
          },
          {
            "astId": 5502,
            "contract": "contracts/Snowman.sol:Snowman",
            "label": "cloudColor",
            "offset": 0,
            "slot": "2",
            "type": "t_string_storage"
          },
          {
            "astId": 5504,
            "contract": "contracts/Snowman.sol:Snowman",
            "label": "buttonColor",
            "offset": 0,
            "slot": "3",
            "type": "t_string_storage"
          },
          {
            "astId": 5506,
            "contract": "contracts/Snowman.sol:Snowman",
            "label": "snowAnimOffsetX",
            "offset": 0,
            "slot": "4",
            "type": "t_int256"
          }
        ],
        "numberOfBytes": "160"
      },
      "t_uint256": {
        "encoding": "inplace",
        "label": "uint256",
        "numberOfBytes": "32"
      }
    }
  }
}