{
  "address": "0x414bCB4bCaf8ffe97CdBC714657628Cac074e568",
  "abi": [
    {
      "inputs": [],
      "name": "count",
      "outputs": [
        {
          "internalType": "uint256",
          "name": "",
          "type": "uint256"
        }
      ],
      "stateMutability": "view",
      "type": "function"
    },
    {
      "inputs": [],
      "name": "dec",
      "outputs": [],
      "stateMutability": "nonpayable",
      "type": "function"
    },
    {
      "inputs": [],
      "name": "get",
      "outputs": [
        {
          "internalType": "uint256",
          "name": "",
          "type": "uint256"
        }
      ],
      "stateMutability": "view",
      "type": "function"
    },
    {
      "inputs": [],
      "name": "inc",
      "outputs": [],
      "stateMutability": "nonpayable",
      "type": "function"
    }
  ],
  "transactionHash": "0x66de28c30fc3bc23cb75a4c6bbb30b22e5687aa2530ad897cde7e4e51abb9f63",
  "args": [],
  "numDeployments": 1,
  "solcInputHash": "d6a4281892af0fac0ef51d9ccbca7719",
  "bytecode": "0x608060405234801561001057600080fd5b50610113806100206000396000f3fe6080604052348015600f57600080fd5b506004361060465760003560e01c806306661abd14604b578063371303c01460655780636d4ce63c14606d578063b3bcfa82146074575b600080fd5b605360005481565b60405190815260200160405180910390f35b606b607a565b005b6000546053565b606b6091565b6001600080828254608a919060b7565b9091555050565b6001600080828254608a919060cd565b634e487b7160e01b600052601160045260246000fd5b8082018082111560c75760c760a1565b92915050565b8181038181111560c75760c760a156fea2646970667358221220e0ad9e06b44daff4e62550337185d31d3c2a6f3254759649a6f56665636664e664736f6c63430008110033",
  "devdoc": {
    "kind": "dev",
    "methods": {},
    "version": 1
  },
  "userdoc": {
    "kind": "user",
    "methods": {},
    "version": 1
  },
  "storageLayout": {
    "storage": [
      {
        "astId": 3,
        "contract": "contracts/Counter.sol:Counter",
        "label": "count",
        "offset": 0,
        "slot": "0",
        "type": "t_uint256"
      }
    ],
    "types": {
      "t_uint256": {
        "encoding": "inplace",
        "label": "uint256",
        "numberOfBytes": "32"
      }
    }
  }
}