{
  "address": "0x9bB7a3572CAe12e7E585b4649Be9a12Ae79e6B7f",
  "abi": [
    {
      "inputs": [
        {
          "internalType": "address",
          "name": "feeCollector",
          "type": "address"
        }
      ],
      "stateMutability": "nonpayable",
      "type": "constructor"
    },
    {
      "inputs": [],
      "name": "Hat__InvalidFeeCollector",
      "type": "error"
    },
    {
      "inputs": [],
      "name": "Hat__InvalidMintFee",
      "type": "error"
    },
    {
      "inputs": [],
      "name": "Hat__NotMinted",
      "type": "error"
    },
    {
      "inputs": [],
      "name": "Hat__TransferFailed",
      "type": "error"
    },
    {
      "inputs": [],
      "name": "Hat__ZeroAddress",
      "type": "error"
    },
    {
      "inputs": [
        {
          "internalType": "uint256",
          "name": "min",
          "type": "uint256"
        },
        {
          "internalType": "uint256",
          "name": "max",
          "type": "uint256"
        }
      ],
      "name": "PRNG__InvalidRange",
      "type": "error"
    },
    {
      "anonymous": false,
      "inputs": [
        {
          "indexed": true,
          "internalType": "address",
          "name": "owner",
          "type": "address"
        },
        {
          "indexed": true,
          "internalType": "address",
          "name": "approved",
          "type": "address"
        },
        {
          "indexed": true,
          "internalType": "uint256",
          "name": "tokenId",
          "type": "uint256"
        }
      ],
      "name": "Approval",
      "type": "event"
    },
    {
      "anonymous": false,
      "inputs": [
        {
          "indexed": true,
          "internalType": "address",
          "name": "owner",
          "type": "address"
        },
        {
          "indexed": true,
          "internalType": "address",
          "name": "operator",
          "type": "address"
        },
        {
          "indexed": false,
          "internalType": "bool",
          "name": "approved",
          "type": "bool"
        }
      ],
      "name": "ApprovalForAll",
      "type": "event"
    },
    {
      "anonymous": false,
      "inputs": [
        {
          "indexed": false,
          "internalType": "address",
          "name": "oldFeeCollector",
          "type": "address"
        },
        {
          "indexed": false,
          "internalType": "address",
          "name": "newFeeCollector",
          "type": "address"
        }
      ],
      "name": "FeeCollectorChanged",
      "type": "event"
    },
    {
      "anonymous": false,
      "inputs": [
        {
          "indexed": true,
          "internalType": "address",
          "name": "previousOwner",
          "type": "address"
        },
        {
          "indexed": true,
          "internalType": "address",
          "name": "newOwner",
          "type": "address"
        }
      ],
      "name": "OwnershipTransferred",
      "type": "event"
    },
    {
      "anonymous": false,
      "inputs": [
        {
          "indexed": true,
          "internalType": "address",
          "name": "from",
          "type": "address"
        },
        {
          "indexed": true,
          "internalType": "address",
          "name": "to",
          "type": "address"
        },
        {
          "indexed": true,
          "internalType": "uint256",
          "name": "tokenId",
          "type": "uint256"
        }
      ],
      "name": "Transfer",
      "type": "event"
    },
    {
      "inputs": [
        {
          "internalType": "address",
          "name": "to",
          "type": "address"
        },
        {
          "internalType": "uint256",
          "name": "tokenId",
          "type": "uint256"
        }
      ],
      "name": "approve",
      "outputs": [],
      "stateMutability": "nonpayable",
      "type": "function"
    },
    {
      "inputs": [
        {
          "internalType": "address",
          "name": "owner",
          "type": "address"
        }
      ],
      "name": "balanceOf",
      "outputs": [
        {
          "internalType": "uint256",
          "name": "",
          "type": "uint256"
        }
      ],
      "stateMutability": "view",
      "type": "function"
    },
    {
      "inputs": [
        {
          "internalType": "uint256",
          "name": "tokenId",
          "type": "uint256"
        }
      ],
      "name": "getApproved",
      "outputs": [
        {
          "internalType": "address",
          "name": "",
          "type": "address"
        }
      ],
      "stateMutability": "view",
      "type": "function"
    },
    {
      "inputs": [
        {
          "internalType": "uint256",
          "name": "tokenId",
          "type": "uint256"
        }
      ],
      "name": "getAttributes",
      "outputs": [
        {
          "components": [
            {
              "internalType": "string",
              "name": "color",
              "type": "string"
            }
          ],
          "internalType": "struct DataTypes.Hat",
          "name": "",
          "type": "tuple"
        }
      ],
      "stateMutability": "view",
      "type": "function"
    },
    {
      "inputs": [],
      "name": "getFeeCollector",
      "outputs": [
        {
          "internalType": "address",
          "name": "",
          "type": "address"
        }
      ],
      "stateMutability": "view",
      "type": "function"
    },
    {
      "inputs": [
        {
          "internalType": "address",
          "name": "owner",
          "type": "address"
        },
        {
          "internalType": "address",
          "name": "operator",
          "type": "address"
        }
      ],
      "name": "isApprovedForAll",
      "outputs": [
        {
          "internalType": "bool",
          "name": "",
          "type": "bool"
        }
      ],
      "stateMutability": "view",
      "type": "function"
    },
    {
      "inputs": [],
      "name": "mint",
      "outputs": [
        {
          "internalType": "uint256",
          "name": "",
          "type": "uint256"
        }
      ],
      "stateMutability": "payable",
      "type": "function"
    },
    {
      "inputs": [],
      "name": "name",
      "outputs": [
        {
          "internalType": "string",
          "name": "",
          "type": "string"
        }
      ],
      "stateMutability": "view",
      "type": "function"
    },
    {
      "inputs": [],
      "name": "owner",
      "outputs": [
        {
          "internalType": "address",
          "name": "",
          "type": "address"
        }
      ],
      "stateMutability": "view",
      "type": "function"
    },
    {
      "inputs": [
        {
          "internalType": "uint256",
          "name": "tokenId",
          "type": "uint256"
        }
      ],
      "name": "ownerOf",
      "outputs": [
        {
          "internalType": "address",
          "name": "",
          "type": "address"
        }
      ],
      "stateMutability": "view",
      "type": "function"
    },
    {
      "inputs": [
        {
          "internalType": "uint256",
          "name": "tokenId",
          "type": "uint256"
        }
      ],
      "name": "renderTokenById",
      "outputs": [
        {
          "internalType": "string",
          "name": "",
          "type": "string"
        }
      ],
      "stateMutability": "view",
      "type": "function"
    },
    {
      "inputs": [],
      "name": "renounceOwnership",
      "outputs": [],
      "stateMutability": "nonpayable",
      "type": "function"
    },
    {
      "inputs": [
        {
          "internalType": "address",
          "name": "from",
          "type": "address"
        },
        {
          "internalType": "address",
          "name": "to",
          "type": "address"
        },
        {
          "internalType": "uint256",
          "name": "tokenId",
          "type": "uint256"
        }
      ],
      "name": "safeTransferFrom",
      "outputs": [],
      "stateMutability": "nonpayable",
      "type": "function"
    },
    {
      "inputs": [
        {
          "internalType": "address",
          "name": "from",
          "type": "address"
        },
        {
          "internalType": "address",
          "name": "to",
          "type": "address"
        },
        {
          "internalType": "uint256",
          "name": "tokenId",
          "type": "uint256"
        },
        {
          "internalType": "bytes",
          "name": "data",
          "type": "bytes"
        }
      ],
      "name": "safeTransferFrom",
      "outputs": [],
      "stateMutability": "nonpayable",
      "type": "function"
    },
    {
      "inputs": [
        {
          "internalType": "address",
          "name": "operator",
          "type": "address"
        },
        {
          "internalType": "bool",
          "name": "approved",
          "type": "bool"
        }
      ],
      "name": "setApprovalForAll",
      "outputs": [],
      "stateMutability": "nonpayable",
      "type": "function"
    },
    {
      "inputs": [
        {
          "internalType": "address",
          "name": "newFeeCollector",
          "type": "address"
        }
      ],
      "name": "setFeeCollector",
      "outputs": [],
      "stateMutability": "nonpayable",
      "type": "function"
    },
    {
      "inputs": [
        {
          "internalType": "bytes4",
          "name": "interfaceId",
          "type": "bytes4"
        }
      ],
      "name": "supportsInterface",
      "outputs": [
        {
          "internalType": "bool",
          "name": "",
          "type": "bool"
        }
      ],
      "stateMutability": "view",
      "type": "function"
    },
    {
      "inputs": [],
      "name": "symbol",
      "outputs": [
        {
          "internalType": "string",
          "name": "",
          "type": "string"
        }
      ],
      "stateMutability": "view",
      "type": "function"
    },
    {
      "inputs": [
        {
          "internalType": "uint256",
          "name": "index",
          "type": "uint256"
        }
      ],
      "name": "tokenByIndex",
      "outputs": [
        {
          "internalType": "uint256",
          "name": "",
          "type": "uint256"
        }
      ],
      "stateMutability": "view",
      "type": "function"
    },
    {
      "inputs": [
        {
          "internalType": "address",
          "name": "owner",
          "type": "address"
        },
        {
          "internalType": "uint256",
          "name": "index",
          "type": "uint256"
        }
      ],
      "name": "tokenOfOwnerByIndex",
      "outputs": [
        {
          "internalType": "uint256",
          "name": "",
          "type": "uint256"
        }
      ],
      "stateMutability": "view",
      "type": "function"
    },
    {
      "inputs": [
        {
          "internalType": "uint256",
          "name": "tokenId",
          "type": "uint256"
        }
      ],
      "name": "tokenURI",
      "outputs": [
        {
          "internalType": "string",
          "name": "",
          "type": "string"
        }
      ],
      "stateMutability": "view",
      "type": "function"
    },
    {
      "inputs": [],
      "name": "totalSupply",
      "outputs": [
        {
          "internalType": "uint256",
          "name": "",
          "type": "uint256"
        }
      ],
      "stateMutability": "view",
      "type": "function"
    },
    {
      "inputs": [
        {
          "internalType": "address",
          "name": "from",
          "type": "address"
        },
        {
          "internalType": "address",
          "name": "to",
          "type": "address"
        },
        {
          "internalType": "uint256",
          "name": "tokenId",
          "type": "uint256"
        }
      ],
      "name": "transferFrom",
      "outputs": [],
      "stateMutability": "nonpayable",
      "type": "function"
    },
    {
      "inputs": [
        {
          "internalType": "address",
          "name": "newOwner",
          "type": "address"
        }
      ],
      "name": "transferOwnership",
      "outputs": [],
      "stateMutability": "nonpayable",
      "type": "function"
    }
  ],
  "transactionHash": "0x05bb1efaaddbec353f0b54390f02e71eade97a8f07fb0740c50b71e22d5a9a24",
  "args": [
    "0x8DCcD505B2B6676d9074fDFAC3261a929f00a8C3"
  ],
  "numDeployments": 1,
  "solcInputHash": "b96a574724eef3f8c3d467b0f1e28008",
  "bytecode": "0x6080346200037a57601f906001600160401b0390601f19906200214a38819003858101841683018581118482101762000364578392829160405283396020928391810103126200037a57516001600160a01b039485821694918590036200037a576200006a6200037f565b92620000756200037f565b9084519584871162000364576000968754966001978881811c9116801562000359575b858210146200034557908187849311620002f2575b50849087831160011462000291578a9262000285575b5050600019600383901b1c191690871b1787555b8251948511620002715785548681811c9116801562000266575b838210146200025257908185879695949311620001f9575b508193851160011462000194575050859262000188575b5050600019600383901b1c191690821b1790555b600a5460018060a01b0319913383831617600a557f8be0079c531659141344cd1fd0a4f28419497f9722a3daafe3b4186f6b6457e0604051953393169180a3600b541617600b55611d9a9081620003b08239f35b01519050388062000120565b869593929193168588528388209388905b828210620001df5750508411620001c5575b505050811b01905562000134565b015160001960f88460031b161c19169055388080620001b7565b8484015186558897909501949384019390810190620001a5565b9091929394508688528288208580880160051c82019285891062000248575b9188978a9297969594930160051c01915b8281106200023957505062000109565b8a815588975089910162000229565b9250819262000218565b634e487b7160e01b88526022600452602488fd5b90607f1690620000f1565b634e487b7160e01b87526041600452602487fd5b015190503880620000c3565b90848a9416918b8052868c20928c5b88828210620002db5750508411620002c1575b505050811b018755620000d7565b015160001960f88460031b161c19169055388080620002b3565b8385015186558d97909501949384019301620002a0565b909150898052848a208780850160051c8201928786106200033b575b918b91869594930160051c01915b8281106200032c575050620000ad565b8c81558594508b91016200031c565b925081926200030e565b634e487b7160e01b8a52602260045260248afd5b90607f169062000098565b634e487b7160e01b600052604160045260246000fd5b600080fd5b60408051919082016001600160401b038111838210176200036457604052600382526212185d60ea1b602083015256fe608080604052600436101561001357600080fd5b60003560e01c90816301ffc9a7146110a35750806306fdde0314611000578063081812fc14610fe2578063095ea7b314610e685780631249c58b146109f957806312fde4b7146109d057806318160ddd146109b257806323b872dd146109895780632f745c59146108d757806342842e0e146108af5780634378a6e3146108395780634f6ccce7146107a85780636352211e1461077857806370a082311461074d578063715018a6146106f05780638da5cb5b146106c757806395d89b41146105e8578063a22cb46514610516578063a2d6c6da1461046f578063a42dce80146103c9578063b88d4fde1461033e578063c87b56dd14610246578063e985e9c5146101f05763f2fde38b1461012757600080fd5b346101eb5760203660031901126101eb57610140611170565b61014861122b565b6001600160a01b0390811690811561019757600a54826001600160601b0360a01b821617600a55167f8be0079c531659141344cd1fd0a4f28419497f9722a3daafe3b4186f6b6457e0600080a3005b60405162461bcd60e51b815260206004820152602660248201527f4f776e61626c653a206e6577206f776e657220697320746865207a65726f206160448201526564647265737360d01b6064820152608490fd5b600080fd5b346101eb5760403660031901126101eb57610209611170565b610211611186565b9060018060a01b03809116600052600560205260406000209116600052602052602060ff604060002054166040519015158152f35b346101eb5760203660031901126101eb576004356000818152600260205260409020546001600160a01b03161561032c5780600052600d60205260006102b36040822060405193849283926304630ab560e21b8452604060048501526020604485015260648401906113a6565b906024830152038173A2D20911F1cb826547Ab47AA11BBfe8192b5AF985af48015610320576102f9916000916102fd575b5060405191829160208352602083019061114b565b0390f35b61031a91503d806000833e61031281836111ed565b810190611a1d565b826102e4565b6040513d6000823e3d90fd5b6040516340737bc360e11b8152600490fd5b346101eb5760803660031901126101eb57610357611170565b61035f611186565b6064359167ffffffffffffffff83116101eb57366023840112156101eb5782600401359161038c8361120f565b9261039a60405194856111ed565b80845236602482870101116101eb5760208160009260246103c798018388013785010152604435916114dc565b005b346101eb5760203660031901126101eb576103e2611170565b6103ea61122b565b600b546001600160a01b03918216918116821561045d5780831461044b57827f649c5e3d0ed183894196148e193af316452b0037e77d2ff0fef23b7dc722bed0936040936001600160601b0360a01b1617600b5582519182526020820152a1005b60405163490dc32d60e11b8152600490fd5b604051637f268bfd60e01b8152600490fd5b346101eb576020806003193601126101eb576104bc90600435600052600d81526000604081206040518094819263676d21cf60e01b835285600484015285602484015260448301906113a6565b038173A2D20911F1cb826547Ab47AA11BBfe8192b5AF985af4918215610320576000926104f9575b506102f960405192828493845283019061114b565b61050f9192503d806000833e61031281836111ed565b90826104e4565b346101eb5760403660031901126101eb5761052f611170565b602435908115158092036101eb576001600160a01b0316903382146105a357336000526005602052604060002082600052602052604060002060ff1981541660ff83161790556040519081527f17307eab39ab6107e8899845ad3d59bd9653f200f220920489ca2b5937696c3160203392a3005b60405162461bcd60e51b815260206004820152601960248201527f4552433732313a20617070726f766520746f2063616c6c6572000000000000006044820152606490fd5b346101eb5760003660031901126101eb576040516000600180549061060c8261136c565b808552918181169081156106a05750600114610647575b6102f984610633818603826111ed565b60405191829160208352602083019061114b565b600081815292507fb10e2d527612073b26eecdfd717e6a320cf44b4afac2b0732d9fcbe2b7fa0cf65b82841061068857505050810160200161063382610623565b80546020858701810191909152909301928101610670565b60ff191660208087019190915292151560051b850190920192506106339150839050610623565b346101eb5760003660031901126101eb57600a546040516001600160a01b039091168152602090f35b346101eb5760003660031901126101eb5761070961122b565b600a80546001600160a01b031981169091556000906001600160a01b03167f8be0079c531659141344cd1fd0a4f28419497f9722a3daafe3b4186f6b6457e08280a3005b346101eb5760203660031901126101eb57602061077061076b611170565b611283565b604051908152f35b346101eb5760203660031901126101eb576020610796600435611346565b6040516001600160a01b039091168152f35b346101eb5760203660031901126101eb576004356008548110156107df576107d160209161199a565b90546040519160031b1c8152f35b60405162461bcd60e51b815260206004820152602c60248201527f455243373231456e756d657261626c653a20676c6f62616c20696e646578206f60448201526b7574206f6620626f756e647360a01b6064820152608490fd5b346101eb5760203660031901126101eb576060604051610858816111d1565b52600435600052600d6020526102f9604060002061088b6108926040519261087f846111d1565b604051928380926113a6565b03826111ed565b81526040519182916020835251602080840152604083019061114b565b346101eb576103c76108c03661119c565b90604051926108ce846111d1565b600084526114dc565b346101eb5760403660031901126101eb576108f0611170565b602435906108fd81611283565b8210156109305760018060a01b031660005260066020526040600020906000526020526020604060002054604051908152f35b60405162461bcd60e51b815260206004820152602b60248201527f455243373231456e756d657261626c653a206f776e657220696e646578206f7560448201526a74206f6620626f756e647360a81b6064820152608490fd5b346101eb576103c761099a3661119c565b916109ad6109a88433611577565b61147a565b61163f565b346101eb5760003660031901126101eb576020600854604051908152f35b346101eb5760003660031901126101eb57600b546040516001600160a01b039091168152602090f35b60003660031901126101eb57662386f26fc100003410610e56576001600c540180600c553315610e1257600081815260026020526040902054610a48906001600160a01b031615155b156119d1565b60085490806000526020916009835280604060002055600160401b811015610d535781610a7e826001610a97940160085561199a565b90919082549060031b91821b91600019901b1916179055565b610aa033611283565b33600052600683526040600020816000528352816040600020558160005260078352604060002055610aea610a4282600052600260205260018060a01b0360406000205416151590565b336000526003825260406000206001815401905580600052600282526040600020336001600160601b0360a01b825416179055803360007fddf252ad1be2c89b69c2b068fc378daa952ba7f163c4a11628f55a4df523b3ef8180a46040516080810181811067ffffffffffffffff821117610d53576040526080368237436000190160005b60038110610d7f5750438111610d695760405190848201904282524060408301523360601b60608301523060601b60748301526068825260a082019180831067ffffffffffffffff841117610d53576007926040525190201660038101809111610d695781816060610bef94015280519060408682015191015191611a7c565b9060405191610bfd836111d1565b825280600052600d83526040600020915191825167ffffffffffffffff8111610d5357610c2a825461136c565b601f8111610d0d575b508493601f8211600114610ca9579381929394600092610c9e575b50508160011b916000199060031b1c19161790555b60008080803460018060a01b03600a54165af1610c7e61186b565b5015610c8c57604051908152f35b6040516363ad91b560e01b8152600490fd5b015190508580610c4e565b601f1982169483600052866000209160005b88888210610cf757505083600195969710610cde575b505050811b019055610c63565b015160001960f88460031b161c19169055858080610cd1565b6001849582939585015181550194019201610cbb565b8260005285600020601f830160051c810191878410610d49575b601f0160051c01905b818110610d3d5750610c33565b60008155600101610d30565b9091508190610d27565b634e487b7160e01b600052604160045260246000fd5b634e487b7160e01b600052601160045260246000fd5b438211610d69576040518186820152426040820152824060608201523360601b60808201523060601b6094820152608881528060c081011067ffffffffffffffff60c083011117610d53578060c060659201604052868151910120066004821015610dfc578160051b8401526000198114610d6957600101610b6f565b634e487b7160e01b600052603260045260246000fd5b606460405162461bcd60e51b815260206004820152602060248201527f4552433732313a206d696e7420746f20746865207a65726f20616464726573736044820152fd5b6040516364162ccb60e11b8152600490fd5b346101eb5760403660031901126101eb57610e81611170565b602435906001600160a01b038080610e9885611346565b16921691808314610f9357803314908115610f6e575b5015610f0357600083815260046020526040902080546001600160a01b03191683179055610edb83611346565b167f8c5be1e5ebec7d5bd14f71427d1e84f3dd0314c0f7b2291e5b200ac8c7c3b925600080a4005b60405162461bcd60e51b815260206004820152603d60248201527f4552433732313a20617070726f76652063616c6c6572206973206e6f7420746f60448201527f6b656e206f776e6572206f7220617070726f76656420666f7220616c6c0000006064820152608490fd5b9050600052600560205260406000203360005260205260ff6040600020541684610eae565b60405162461bcd60e51b815260206004820152602160248201527f4552433732313a20617070726f76616c20746f2063757272656e74206f776e656044820152603960f91b6064820152608490fd5b346101eb5760203660031901126101eb57602061079660043561143c565b346101eb5760003660031901126101eb57604051600080546110218161136c565b808452906001908181169081156106a0575060011461104a576102f984610633818603826111ed565b600080805292507f290decd9548b62a8d60345a988386fc84ba6bc95484008f6362f93160ef3e5635b82841061108b57505050810160200161063382610623565b80546020858701810191909152909301928101611073565b346101eb5760203660031901126101eb576004359063ffffffff60e01b82168092036101eb5760209163780e9d6360e01b81149081156110e5575b5015158152f35b6380ac58cd60e01b811491508115611117575b8115611106575b50836110de565b6301ffc9a760e01b149050836110ff565b635b5e139f60e01b811491506110f8565b60005b83811061113b5750506000910152565b818101518382015260200161112b565b9060209161116481518092818552858086019101611128565b601f01601f1916010190565b600435906001600160a01b03821682036101eb57565b602435906001600160a01b03821682036101eb57565b60609060031901126101eb576001600160a01b039060043582811681036101eb579160243590811681036101eb579060443590565b6020810190811067ffffffffffffffff821117610d5357604052565b90601f8019910116810190811067ffffffffffffffff821117610d5357604052565b67ffffffffffffffff8111610d5357601f01601f191660200190565b600a546001600160a01b0316330361123f57565b606460405162461bcd60e51b815260206004820152602060248201527f4f776e61626c653a2063616c6c6572206973206e6f7420746865206f776e65726044820152fd5b6001600160a01b031680156112a357600052600360205260406000205490565b60405162461bcd60e51b815260206004820152602960248201527f4552433732313a2061646472657373207a65726f206973206e6f7420612076616044820152683634b21037bbb732b960b91b6064820152608490fd5b1561130157565b60405162461bcd60e51b815260206004820152601860248201527f4552433732313a20696e76616c696420746f6b656e20494400000000000000006044820152606490fd5b6000908152600260205260409020546001600160a01b03166113698115156112fa565b90565b90600182811c9216801561139c575b602083101461138657565b634e487b7160e01b600052602260045260246000fd5b91607f169161137b565b90600092918054916113b78361136c565b91828252600193848116908160001461141957506001146113d9575b50505050565b90919394506000526020928360002092846000945b8386106114055750505050010190388080806113d3565b8054858701830152940193859082016113ee565b9294505050602093945060ff191683830152151560051b010190388080806113d3565b60008181526002602052604090205461145f906001600160a01b031615156112fa565b6000908152600460205260409020546001600160a01b031690565b1561148157565b60405162461bcd60e51b815260206004820152602d60248201527f4552433732313a2063616c6c6572206973206e6f7420746f6b656e206f776e6560448201526c1c881bdc88185c1c1c9bdd9959609a1b6064820152608490fd5b906115009392916114f06109a88433611577565b6114fb83838361163f565b61189b565b1561150757565b60405162461bcd60e51b81528061152060048201611524565b0390fd5b60809060208152603260208201527f4552433732313a207472616e7366657220746f206e6f6e20455243373231526560408201527131b2b4bb32b91034b6b83632b6b2b73a32b960711b60608201520190565b906001600160a01b03808061158b84611346565b169316918383149384156115be575b5083156115a8575b50505090565b6115b49192935061143c565b16143880806115a2565b909350600052600560205260406000208260005260205260ff60406000205416923861159a565b156115ec57565b60405162461bcd60e51b815260206004820152602560248201527f4552433732313a207472616e736665722066726f6d20696e636f72726563742060448201526437bbb732b960d91b6064820152608490fd5b6116639161164c84611346565b6001600160a01b03938484169391851684146115e5565b83821693841561181a57839182611777575090506008549085600052600960205281604060002055600160401b821015610d53576116c9926116b087610a7e85600189970160085561199a565b828603611744575b506116c286611346565b16146115e5565b7fddf252ad1be2c89b69c2b068fc378daa952ba7f163c4a11628f55a4df523b3ef60008481526004602052604081206001600160601b0360a01b9081815416905583825260036020526040822060001981540190558482526040822060018154019055858252600260205284604083209182541617905580a4565b61174d90611283565b604060008781526006602052818120838252602052888282205588815260076020522055386116b8565b858303611789575b506116c9926116b0565b611794919250611283565b600019810191908211610d69576116c992849260009088825260209060078252604091828420548281036117e3575b508a8452838381205586845260068152828420918452528120559261177f565b87855260068252838520838652825283852054888652600683528486208287528352808587205585526007825283852055386117c3565b60405162461bcd60e51b8152602060048201526024808201527f4552433732313a207472616e7366657220746f20746865207a65726f206164646044820152637265737360e01b6064820152608490fd5b3d15611896573d9061187c8261120f565b9161188a60405193846111ed565b82523d6000602084013e565b606090565b91926000929190813b15611990576020916118f19185604051958680958194630a85bd0160e11b9b8c845233600485015260018060a01b038095166024850152604484015260806064840152608483019061114b565b0393165af190829082611941575b50506119335761190d61186b565b8051908161192e5760405162461bcd60e51b81528061152060048201611524565b602001fd5b6001600160e01b0319161490565b909192506020813d8211611988575b8161195d602093836111ed565b810103126119845751906001600160e01b03198216820361198157509038806118ff565b80fd5b5080fd5b3d9150611950565b5050505050600190565b600854811015610dfc5760086000527ff3f7a9fe364faab93b216da50a3214154f22a0a2b415b23a84c8169e8b636ee30190600090565b156119d857565b60405162461bcd60e51b815260206004820152601c60248201527f4552433732313a20746f6b656e20616c7265616479206d696e746564000000006044820152606490fd5b6020818303126101eb5780519067ffffffffffffffff82116101eb570181601f820112156101eb578051611a508161120f565b92611a5e60405194856111ed565b818452602082840101116101eb576113699160208085019101611128565b9192600a811015611b595790603091611ab2611aac611aa6611aa061136997611bfc565b94611bfc565b96611bfc565b91611bfc565b90604051958693640d0e6d8c2560db1b6020860152611adb815180926020602589019101611128565b840161016160f51b6025820152611afc825180936020602785019101611128565b016201296160ed1b6027820152611b1d825180936020602a85019101611128565b0164129610181760d91b602a820152611b40825180936020602f85019101611128565b01602960f81b602f8201520360108101845201826111ed565b50602f90611b75611aa0611b6f61136995611bfc565b92611bfc565b604051948592640d0e6d8c2560db1b6020850152611b9d815180926020602588019101611128565b830161016160f51b6025820152611bbe825180936020602785019101611128565b016201296160ed1b6027820152611bdf825180936020602a85019101611128565b0164252c20312960d81b602a82015203600f8101845201826111ed565b806000917a184f03e93ff9f4daa797ed6e38ed64bf6a1f01000000000000000080821015611d56575b506d04ee2d6d415b85acef810000000080831015611d47575b50662386f26fc1000080831015611d38575b506305f5e10080831015611d29575b5061271080831015611d1a575b506064821015611d0a575b600a80921015611d00575b60019081602181860195611c958761120f565b96611ca360405198896111ed565b808852611cb2601f199161120f565b01366020890137860101905b611cca575b5050505090565b600019019083906f181899199a1a9b1b9c1cb0b131b232b360811b8282061a835304918215611cfb57919082611cbe565b611cc3565b9160010191611c82565b9190606460029104910191611c77565b60049193920491019138611c6c565b60089193920491019138611c5f565b60109193920491019138611c50565b60209193920491019138611c3e565b604093508104915038611c2556fea264697066735822122002f5fd9b5db96307d34904890222429e6c6427bf348451e690bd53bed95d7e6664736f6c63430008120033",
  "deployedBytecode": "0x608080604052600436101561001357600080fd5b60003560e01c90816301ffc9a7146110a35750806306fdde0314611000578063081812fc14610fe2578063095ea7b314610e685780631249c58b146109f957806312fde4b7146109d057806318160ddd146109b257806323b872dd146109895780632f745c59146108d757806342842e0e146108af5780634378a6e3146108395780634f6ccce7146107a85780636352211e1461077857806370a082311461074d578063715018a6146106f05780638da5cb5b146106c757806395d89b41146105e8578063a22cb46514610516578063a2d6c6da1461046f578063a42dce80146103c9578063b88d4fde1461033e578063c87b56dd14610246578063e985e9c5146101f05763f2fde38b1461012757600080fd5b346101eb5760203660031901126101eb57610140611170565b61014861122b565b6001600160a01b0390811690811561019757600a54826001600160601b0360a01b821617600a55167f8be0079c531659141344cd1fd0a4f28419497f9722a3daafe3b4186f6b6457e0600080a3005b60405162461bcd60e51b815260206004820152602660248201527f4f776e61626c653a206e6577206f776e657220697320746865207a65726f206160448201526564647265737360d01b6064820152608490fd5b600080fd5b346101eb5760403660031901126101eb57610209611170565b610211611186565b9060018060a01b03809116600052600560205260406000209116600052602052602060ff604060002054166040519015158152f35b346101eb5760203660031901126101eb576004356000818152600260205260409020546001600160a01b03161561032c5780600052600d60205260006102b36040822060405193849283926304630ab560e21b8452604060048501526020604485015260648401906113a6565b906024830152038173__$06d5934c1fce4bc055f69676a2758198b6$__5af48015610320576102f9916000916102fd575b5060405191829160208352602083019061114b565b0390f35b61031a91503d806000833e61031281836111ed565b810190611a1d565b826102e4565b6040513d6000823e3d90fd5b6040516340737bc360e11b8152600490fd5b346101eb5760803660031901126101eb57610357611170565b61035f611186565b6064359167ffffffffffffffff83116101eb57366023840112156101eb5782600401359161038c8361120f565b9261039a60405194856111ed565b80845236602482870101116101eb5760208160009260246103c798018388013785010152604435916114dc565b005b346101eb5760203660031901126101eb576103e2611170565b6103ea61122b565b600b546001600160a01b03918216918116821561045d5780831461044b57827f649c5e3d0ed183894196148e193af316452b0037e77d2ff0fef23b7dc722bed0936040936001600160601b0360a01b1617600b5582519182526020820152a1005b60405163490dc32d60e11b8152600490fd5b604051637f268bfd60e01b8152600490fd5b346101eb576020806003193601126101eb576104bc90600435600052600d81526000604081206040518094819263676d21cf60e01b835285600484015285602484015260448301906113a6565b038173__$06d5934c1fce4bc055f69676a2758198b6$__5af4918215610320576000926104f9575b506102f960405192828493845283019061114b565b61050f9192503d806000833e61031281836111ed565b90826104e4565b346101eb5760403660031901126101eb5761052f611170565b602435908115158092036101eb576001600160a01b0316903382146105a357336000526005602052604060002082600052602052604060002060ff1981541660ff83161790556040519081527f17307eab39ab6107e8899845ad3d59bd9653f200f220920489ca2b5937696c3160203392a3005b60405162461bcd60e51b815260206004820152601960248201527f4552433732313a20617070726f766520746f2063616c6c6572000000000000006044820152606490fd5b346101eb5760003660031901126101eb576040516000600180549061060c8261136c565b808552918181169081156106a05750600114610647575b6102f984610633818603826111ed565b60405191829160208352602083019061114b565b600081815292507fb10e2d527612073b26eecdfd717e6a320cf44b4afac2b0732d9fcbe2b7fa0cf65b82841061068857505050810160200161063382610623565b80546020858701810191909152909301928101610670565b60ff191660208087019190915292151560051b850190920192506106339150839050610623565b346101eb5760003660031901126101eb57600a546040516001600160a01b039091168152602090f35b346101eb5760003660031901126101eb5761070961122b565b600a80546001600160a01b031981169091556000906001600160a01b03167f8be0079c531659141344cd1fd0a4f28419497f9722a3daafe3b4186f6b6457e08280a3005b346101eb5760203660031901126101eb57602061077061076b611170565b611283565b604051908152f35b346101eb5760203660031901126101eb576020610796600435611346565b6040516001600160a01b039091168152f35b346101eb5760203660031901126101eb576004356008548110156107df576107d160209161199a565b90546040519160031b1c8152f35b60405162461bcd60e51b815260206004820152602c60248201527f455243373231456e756d657261626c653a20676c6f62616c20696e646578206f60448201526b7574206f6620626f756e647360a01b6064820152608490fd5b346101eb5760203660031901126101eb576060604051610858816111d1565b52600435600052600d6020526102f9604060002061088b6108926040519261087f846111d1565b604051928380926113a6565b03826111ed565b81526040519182916020835251602080840152604083019061114b565b346101eb576103c76108c03661119c565b90604051926108ce846111d1565b600084526114dc565b346101eb5760403660031901126101eb576108f0611170565b602435906108fd81611283565b8210156109305760018060a01b031660005260066020526040600020906000526020526020604060002054604051908152f35b60405162461bcd60e51b815260206004820152602b60248201527f455243373231456e756d657261626c653a206f776e657220696e646578206f7560448201526a74206f6620626f756e647360a81b6064820152608490fd5b346101eb576103c761099a3661119c565b916109ad6109a88433611577565b61147a565b61163f565b346101eb5760003660031901126101eb576020600854604051908152f35b346101eb5760003660031901126101eb57600b546040516001600160a01b039091168152602090f35b60003660031901126101eb57662386f26fc100003410610e56576001600c540180600c553315610e1257600081815260026020526040902054610a48906001600160a01b031615155b156119d1565b60085490806000526020916009835280604060002055600160401b811015610d535781610a7e826001610a97940160085561199a565b90919082549060031b91821b91600019901b1916179055565b610aa033611283565b33600052600683526040600020816000528352816040600020558160005260078352604060002055610aea610a4282600052600260205260018060a01b0360406000205416151590565b336000526003825260406000206001815401905580600052600282526040600020336001600160601b0360a01b825416179055803360007fddf252ad1be2c89b69c2b068fc378daa952ba7f163c4a11628f55a4df523b3ef8180a46040516080810181811067ffffffffffffffff821117610d53576040526080368237436000190160005b60038110610d7f5750438111610d695760405190848201904282524060408301523360601b60608301523060601b60748301526068825260a082019180831067ffffffffffffffff841117610d53576007926040525190201660038101809111610d695781816060610bef94015280519060408682015191015191611a7c565b9060405191610bfd836111d1565b825280600052600d83526040600020915191825167ffffffffffffffff8111610d5357610c2a825461136c565b601f8111610d0d575b508493601f8211600114610ca9579381929394600092610c9e575b50508160011b916000199060031b1c19161790555b60008080803460018060a01b03600a54165af1610c7e61186b565b5015610c8c57604051908152f35b6040516363ad91b560e01b8152600490fd5b015190508580610c4e565b601f1982169483600052866000209160005b88888210610cf757505083600195969710610cde575b505050811b019055610c63565b015160001960f88460031b161c19169055858080610cd1565b6001849582939585015181550194019201610cbb565b8260005285600020601f830160051c810191878410610d49575b601f0160051c01905b818110610d3d5750610c33565b60008155600101610d30565b9091508190610d27565b634e487b7160e01b600052604160045260246000fd5b634e487b7160e01b600052601160045260246000fd5b438211610d69576040518186820152426040820152824060608201523360601b60808201523060601b6094820152608881528060c081011067ffffffffffffffff60c083011117610d53578060c060659201604052868151910120066004821015610dfc578160051b8401526000198114610d6957600101610b6f565b634e487b7160e01b600052603260045260246000fd5b606460405162461bcd60e51b815260206004820152602060248201527f4552433732313a206d696e7420746f20746865207a65726f20616464726573736044820152fd5b6040516364162ccb60e11b8152600490fd5b346101eb5760403660031901126101eb57610e81611170565b602435906001600160a01b038080610e9885611346565b16921691808314610f9357803314908115610f6e575b5015610f0357600083815260046020526040902080546001600160a01b03191683179055610edb83611346565b167f8c5be1e5ebec7d5bd14f71427d1e84f3dd0314c0f7b2291e5b200ac8c7c3b925600080a4005b60405162461bcd60e51b815260206004820152603d60248201527f4552433732313a20617070726f76652063616c6c6572206973206e6f7420746f60448201527f6b656e206f776e6572206f7220617070726f76656420666f7220616c6c0000006064820152608490fd5b9050600052600560205260406000203360005260205260ff6040600020541684610eae565b60405162461bcd60e51b815260206004820152602160248201527f4552433732313a20617070726f76616c20746f2063757272656e74206f776e656044820152603960f91b6064820152608490fd5b346101eb5760203660031901126101eb57602061079660043561143c565b346101eb5760003660031901126101eb57604051600080546110218161136c565b808452906001908181169081156106a0575060011461104a576102f984610633818603826111ed565b600080805292507f290decd9548b62a8d60345a988386fc84ba6bc95484008f6362f93160ef3e5635b82841061108b57505050810160200161063382610623565b80546020858701810191909152909301928101611073565b346101eb5760203660031901126101eb576004359063ffffffff60e01b82168092036101eb5760209163780e9d6360e01b81149081156110e5575b5015158152f35b6380ac58cd60e01b811491508115611117575b8115611106575b50836110de565b6301ffc9a760e01b149050836110ff565b635b5e139f60e01b811491506110f8565b60005b83811061113b5750506000910152565b818101518382015260200161112b565b9060209161116481518092818552858086019101611128565b601f01601f1916010190565b600435906001600160a01b03821682036101eb57565b602435906001600160a01b03821682036101eb57565b60609060031901126101eb576001600160a01b039060043582811681036101eb579160243590811681036101eb579060443590565b6020810190811067ffffffffffffffff821117610d5357604052565b90601f8019910116810190811067ffffffffffffffff821117610d5357604052565b67ffffffffffffffff8111610d5357601f01601f191660200190565b600a546001600160a01b0316330361123f57565b606460405162461bcd60e51b815260206004820152602060248201527f4f776e61626c653a2063616c6c6572206973206e6f7420746865206f776e65726044820152fd5b6001600160a01b031680156112a357600052600360205260406000205490565b60405162461bcd60e51b815260206004820152602960248201527f4552433732313a2061646472657373207a65726f206973206e6f7420612076616044820152683634b21037bbb732b960b91b6064820152608490fd5b1561130157565b60405162461bcd60e51b815260206004820152601860248201527f4552433732313a20696e76616c696420746f6b656e20494400000000000000006044820152606490fd5b6000908152600260205260409020546001600160a01b03166113698115156112fa565b90565b90600182811c9216801561139c575b602083101461138657565b634e487b7160e01b600052602260045260246000fd5b91607f169161137b565b90600092918054916113b78361136c565b91828252600193848116908160001461141957506001146113d9575b50505050565b90919394506000526020928360002092846000945b8386106114055750505050010190388080806113d3565b8054858701830152940193859082016113ee565b9294505050602093945060ff191683830152151560051b010190388080806113d3565b60008181526002602052604090205461145f906001600160a01b031615156112fa565b6000908152600460205260409020546001600160a01b031690565b1561148157565b60405162461bcd60e51b815260206004820152602d60248201527f4552433732313a2063616c6c6572206973206e6f7420746f6b656e206f776e6560448201526c1c881bdc88185c1c1c9bdd9959609a1b6064820152608490fd5b906115009392916114f06109a88433611577565b6114fb83838361163f565b61189b565b1561150757565b60405162461bcd60e51b81528061152060048201611524565b0390fd5b60809060208152603260208201527f4552433732313a207472616e7366657220746f206e6f6e20455243373231526560408201527131b2b4bb32b91034b6b83632b6b2b73a32b960711b60608201520190565b906001600160a01b03808061158b84611346565b169316918383149384156115be575b5083156115a8575b50505090565b6115b49192935061143c565b16143880806115a2565b909350600052600560205260406000208260005260205260ff60406000205416923861159a565b156115ec57565b60405162461bcd60e51b815260206004820152602560248201527f4552433732313a207472616e736665722066726f6d20696e636f72726563742060448201526437bbb732b960d91b6064820152608490fd5b6116639161164c84611346565b6001600160a01b03938484169391851684146115e5565b83821693841561181a57839182611777575090506008549085600052600960205281604060002055600160401b821015610d53576116c9926116b087610a7e85600189970160085561199a565b828603611744575b506116c286611346565b16146115e5565b7fddf252ad1be2c89b69c2b068fc378daa952ba7f163c4a11628f55a4df523b3ef60008481526004602052604081206001600160601b0360a01b9081815416905583825260036020526040822060001981540190558482526040822060018154019055858252600260205284604083209182541617905580a4565b61174d90611283565b604060008781526006602052818120838252602052888282205588815260076020522055386116b8565b858303611789575b506116c9926116b0565b611794919250611283565b600019810191908211610d69576116c992849260009088825260209060078252604091828420548281036117e3575b508a8452838381205586845260068152828420918452528120559261177f565b87855260068252838520838652825283852054888652600683528486208287528352808587205585526007825283852055386117c3565b60405162461bcd60e51b8152602060048201526024808201527f4552433732313a207472616e7366657220746f20746865207a65726f206164646044820152637265737360e01b6064820152608490fd5b3d15611896573d9061187c8261120f565b9161188a60405193846111ed565b82523d6000602084013e565b606090565b91926000929190813b15611990576020916118f19185604051958680958194630a85bd0160e11b9b8c845233600485015260018060a01b038095166024850152604484015260806064840152608483019061114b565b0393165af190829082611941575b50506119335761190d61186b565b8051908161192e5760405162461bcd60e51b81528061152060048201611524565b602001fd5b6001600160e01b0319161490565b909192506020813d8211611988575b8161195d602093836111ed565b810103126119845751906001600160e01b03198216820361198157509038806118ff565b80fd5b5080fd5b3d9150611950565b5050505050600190565b600854811015610dfc5760086000527ff3f7a9fe364faab93b216da50a3214154f22a0a2b415b23a84c8169e8b636ee30190600090565b156119d857565b60405162461bcd60e51b815260206004820152601c60248201527f4552433732313a20746f6b656e20616c7265616479206d696e746564000000006044820152606490fd5b6020818303126101eb5780519067ffffffffffffffff82116101eb570181601f820112156101eb578051611a508161120f565b92611a5e60405194856111ed565b818452602082840101116101eb576113699160208085019101611128565b9192600a811015611b595790603091611ab2611aac611aa6611aa061136997611bfc565b94611bfc565b96611bfc565b91611bfc565b90604051958693640d0e6d8c2560db1b6020860152611adb815180926020602589019101611128565b840161016160f51b6025820152611afc825180936020602785019101611128565b016201296160ed1b6027820152611b1d825180936020602a85019101611128565b0164129610181760d91b602a820152611b40825180936020602f85019101611128565b01602960f81b602f8201520360108101845201826111ed565b50602f90611b75611aa0611b6f61136995611bfc565b92611bfc565b604051948592640d0e6d8c2560db1b6020850152611b9d815180926020602588019101611128565b830161016160f51b6025820152611bbe825180936020602785019101611128565b016201296160ed1b6027820152611bdf825180936020602a85019101611128565b0164252c20312960d81b602a82015203600f8101845201826111ed565b806000917a184f03e93ff9f4daa797ed6e38ed64bf6a1f01000000000000000080821015611d56575b506d04ee2d6d415b85acef810000000080831015611d47575b50662386f26fc1000080831015611d38575b506305f5e10080831015611d29575b5061271080831015611d1a575b506064821015611d0a575b600a80921015611d00575b60019081602181860195611c958761120f565b96611ca360405198896111ed565b808852611cb2601f199161120f565b01366020890137860101905b611cca575b5050505090565b600019019083906f181899199a1a9b1b9c1cb0b131b232b360811b8282061a835304918215611cfb57919082611cbe565b611cc3565b9160010191611c82565b9190606460029104910191611c77565b60049193920491019138611c6c565b60089193920491019138611c5f565b60109193920491019138611c50565b60209193920491019138611c3e565b604093508104915038611c2556fea264697066735822122002f5fd9b5db96307d34904890222429e6c6427bf348451e690bd53bed95d7e6664736f6c63430008120033",
  "libraries": {
    "HatMetadata": "0xA2D20911F1cb826547Ab47AA11BBfe8192b5AF98"
  },
  "devdoc": {
    "events": {
      "Approval(address,address,uint256)": {
        "details": "Emitted when `owner` enables `approved` to manage the `tokenId` token."
      },
      "ApprovalForAll(address,address,bool)": {
        "details": "Emitted when `owner` enables or disables (`approved`) `operator` to manage all of its assets."
      },
      "Transfer(address,address,uint256)": {
        "details": "Emitted when `tokenId` token is transferred from `from` to `to`."
      }
    },
    "kind": "dev",
    "methods": {
      "approve(address,uint256)": {
        "details": "See {IERC721-approve}."
      },
      "balanceOf(address)": {
        "details": "See {IERC721-balanceOf}."
      },
      "getApproved(uint256)": {
        "details": "See {IERC721-getApproved}."
      },
      "isApprovedForAll(address,address)": {
        "details": "See {IERC721-isApprovedForAll}."
      },
      "name()": {
        "details": "See {IERC721Metadata-name}."
      },
      "owner()": {
        "details": "Returns the address of the current owner."
      },
      "ownerOf(uint256)": {
        "details": "See {IERC721-ownerOf}."
      },
      "renounceOwnership()": {
        "details": "Leaves the contract without owner. It will not be possible to call `onlyOwner` functions. Can only be called by the current owner. NOTE: Renouncing ownership will leave the contract without an owner, thereby disabling any functionality that is only available to the owner."
      },
      "safeTransferFrom(address,address,uint256)": {
        "details": "See {IERC721-safeTransferFrom}."
      },
      "safeTransferFrom(address,address,uint256,bytes)": {
        "details": "See {IERC721-safeTransferFrom}."
      },
      "setApprovalForAll(address,bool)": {
        "details": "See {IERC721-setApprovalForAll}."
      },
      "supportsInterface(bytes4)": {
        "details": "See {IERC165-supportsInterface}."
      },
      "symbol()": {
        "details": "See {IERC721Metadata-symbol}."
      },
      "tokenByIndex(uint256)": {
        "details": "See {IERC721Enumerable-tokenByIndex}."
      },
      "tokenOfOwnerByIndex(address,uint256)": {
        "details": "See {IERC721Enumerable-tokenOfOwnerByIndex}."
      },
      "tokenURI(uint256)": {
        "details": "See {IERC721Metadata-tokenURI}."
      },
      "totalSupply()": {
        "details": "See {IERC721Enumerable-totalSupply}."
      },
      "transferFrom(address,address,uint256)": {
        "details": "See {IERC721-transferFrom}."
      },
      "transferOwnership(address)": {
        "details": "Transfers ownership of the contract to a new account (`newOwner`). Can only be called by the current owner."
      }
    },
    "version": 1
  },
  "userdoc": {
    "kind": "user",
    "methods": {},
    "version": 1
  },
  "storageLayout": {
    "storage": [
      {
        "astId": 144,
        "contract": "contracts/accessories/Hat.sol:Hat",
        "label": "_name",
        "offset": 0,
        "slot": "0",
        "type": "t_string_storage"
      },
      {
        "astId": 146,
        "contract": "contracts/accessories/Hat.sol:Hat",
        "label": "_symbol",
        "offset": 0,
        "slot": "1",
        "type": "t_string_storage"
      },
      {
        "astId": 150,
        "contract": "contracts/accessories/Hat.sol:Hat",
        "label": "_owners",
        "offset": 0,
        "slot": "2",
        "type": "t_mapping(t_uint256,t_address)"
      },
      {
        "astId": 154,
        "contract": "contracts/accessories/Hat.sol:Hat",
        "label": "_balances",
        "offset": 0,
        "slot": "3",
        "type": "t_mapping(t_address,t_uint256)"
      },
      {
        "astId": 158,
        "contract": "contracts/accessories/Hat.sol:Hat",
        "label": "_tokenApprovals",
        "offset": 0,
        "slot": "4",
        "type": "t_mapping(t_uint256,t_address)"
      },
      {
        "astId": 164,
        "contract": "contracts/accessories/Hat.sol:Hat",
        "label": "_operatorApprovals",
        "offset": 0,
        "slot": "5",
        "type": "t_mapping(t_address,t_mapping(t_address,t_bool))"
      },
      {
        "astId": 1194,
        "contract": "contracts/accessories/Hat.sol:Hat",
        "label": "_ownedTokens",
        "offset": 0,
        "slot": "6",
        "type": "t_mapping(t_address,t_mapping(t_uint256,t_uint256))"
      },
      {
        "astId": 1198,
        "contract": "contracts/accessories/Hat.sol:Hat",
        "label": "_ownedTokensIndex",
        "offset": 0,
        "slot": "7",
        "type": "t_mapping(t_uint256,t_uint256)"
      },
      {
        "astId": 1201,
        "contract": "contracts/accessories/Hat.sol:Hat",
        "label": "_allTokens",
        "offset": 0,
        "slot": "8",
        "type": "t_array(t_uint256)dyn_storage"
      },
      {
        "astId": 1205,
        "contract": "contracts/accessories/Hat.sol:Hat",
        "label": "_allTokensIndex",
        "offset": 0,
        "slot": "9",
        "type": "t_mapping(t_uint256,t_uint256)"
      },
      {
        "astId": 7,
        "contract": "contracts/accessories/Hat.sol:Hat",
        "label": "_owner",
        "offset": 0,
        "slot": "10",
        "type": "t_address"
      },
      {
        "astId": 4131,
        "contract": "contracts/accessories/Hat.sol:Hat",
        "label": "s_feeCollector",
        "offset": 0,
        "slot": "11",
        "type": "t_address"
      },
      {
        "astId": 4134,
        "contract": "contracts/accessories/Hat.sol:Hat",
        "label": "s_tokenIds",
        "offset": 0,
        "slot": "12",
        "type": "t_struct(Counter)1949_storage"
      },
      {
        "astId": 4139,
        "contract": "contracts/accessories/Hat.sol:Hat",
        "label": "s_attributes",
        "offset": 0,
        "slot": "13",
        "type": "t_mapping(t_uint256,t_struct(Hat)6607_storage)"
      }
    ],
    "types": {
      "t_address": {
        "encoding": "inplace",
        "label": "address",
        "numberOfBytes": "20"
      },
      "t_array(t_uint256)dyn_storage": {
        "base": "t_uint256",
        "encoding": "dynamic_array",
        "label": "uint256[]",
        "numberOfBytes": "32"
      },
      "t_bool": {
        "encoding": "inplace",
        "label": "bool",
        "numberOfBytes": "1"
      },
      "t_mapping(t_address,t_bool)": {
        "encoding": "mapping",
        "key": "t_address",
        "label": "mapping(address => bool)",
        "numberOfBytes": "32",
        "value": "t_bool"
      },
      "t_mapping(t_address,t_mapping(t_address,t_bool))": {
        "encoding": "mapping",
        "key": "t_address",
        "label": "mapping(address => mapping(address => bool))",
        "numberOfBytes": "32",
        "value": "t_mapping(t_address,t_bool)"
      },
      "t_mapping(t_address,t_mapping(t_uint256,t_uint256))": {
        "encoding": "mapping",
        "key": "t_address",
        "label": "mapping(address => mapping(uint256 => uint256))",
        "numberOfBytes": "32",
        "value": "t_mapping(t_uint256,t_uint256)"
      },
      "t_mapping(t_address,t_uint256)": {
        "encoding": "mapping",
        "key": "t_address",
        "label": "mapping(address => uint256)",
        "numberOfBytes": "32",
        "value": "t_uint256"
      },
      "t_mapping(t_uint256,t_address)": {
        "encoding": "mapping",
        "key": "t_uint256",
        "label": "mapping(uint256 => address)",
        "numberOfBytes": "32",
        "value": "t_address"
      },
      "t_mapping(t_uint256,t_struct(Hat)6607_storage)": {
        "encoding": "mapping",
        "key": "t_uint256",
        "label": "mapping(uint256 => struct DataTypes.Hat)",
        "numberOfBytes": "32",
        "value": "t_struct(Hat)6607_storage"
      },
      "t_mapping(t_uint256,t_uint256)": {
        "encoding": "mapping",
        "key": "t_uint256",
        "label": "mapping(uint256 => uint256)",
        "numberOfBytes": "32",
        "value": "t_uint256"
      },
      "t_string_storage": {
        "encoding": "bytes",
        "label": "string",
        "numberOfBytes": "32"
      },
      "t_struct(Counter)1949_storage": {
        "encoding": "inplace",
        "label": "struct Counters.Counter",
        "members": [
          {
            "astId": 1948,
            "contract": "contracts/accessories/Hat.sol:Hat",
            "label": "_value",
            "offset": 0,
            "slot": "0",
            "type": "t_uint256"
          }
        ],
        "numberOfBytes": "32"
      },
      "t_struct(Hat)6607_storage": {
        "encoding": "inplace",
        "label": "struct DataTypes.Hat",
        "members": [
          {
            "astId": 6606,
            "contract": "contracts/accessories/Hat.sol:Hat",
            "label": "color",
            "offset": 0,
            "slot": "0",
            "type": "t_string_storage"
          }
        ],
        "numberOfBytes": "32"
      },
      "t_uint256": {
        "encoding": "inplace",
        "label": "uint256",
        "numberOfBytes": "32"
      }
    }
  }
}