{
  "address": "0xecc0A1dC7278fd6688fE8aCa9260b8C8713100b4",
  "abi": [
    {
      "inputs": [
        {
          "internalType": "address",
          "name": "_owner",
          "type": "address"
        }
      ],
      "stateMutability": "nonpayable",
      "type": "constructor"
    },
    {
      "anonymous": false,
      "inputs": [
        {
          "indexed": true,
          "internalType": "address",
          "name": "greetingSetter",
          "type": "address"
        },
        {
          "indexed": false,
          "internalType": "string",
          "name": "newGreeting",
          "type": "string"
        },
        {
          "indexed": false,
          "internalType": "bool",
          "name": "premium",
          "type": "bool"
        },
        {
          "indexed": false,
          "internalType": "uint256",
          "name": "value",
          "type": "uint256"
        }
      ],
      "name": "GreetingChange",
      "type": "event"
    },
    {
      "inputs": [
        {
          "internalType": "string",
          "name": "rubbish",
          "type": "string"
        }
      ],
      "name": "getRubbish",
      "outputs": [
        {
          "internalType": "string",
          "name": "",
          "type": "string"
        }
      ],
      "stateMutability": "pure",
      "type": "function"
    },
    {
      "inputs": [],
      "name": "greeting",
      "outputs": [
        {
          "internalType": "string",
          "name": "",
          "type": "string"
        }
      ],
      "stateMutability": "view",
      "type": "function"
    },
    {
      "inputs": [],
      "name": "owner",
      "outputs": [
        {
          "internalType": "address",
          "name": "",
          "type": "address"
        }
      ],
      "stateMutability": "view",
      "type": "function"
    },
    {
      "inputs": [],
      "name": "premium",
      "outputs": [
        {
          "internalType": "bool",
          "name": "",
          "type": "bool"
        }
      ],
      "stateMutability": "view",
      "type": "function"
    },
    {
      "inputs": [
        {
          "internalType": "string",
          "name": "_newGreeting",
          "type": "string"
        }
      ],
      "name": "setGreeting",
      "outputs": [],
      "stateMutability": "payable",
      "type": "function"
    },
    {
      "inputs": [],
      "name": "totalCounter",
      "outputs": [
        {
          "internalType": "uint256",
          "name": "",
          "type": "uint256"
        }
      ],
      "stateMutability": "view",
      "type": "function"
    },
    {
      "inputs": [
        {
          "internalType": "address",
          "name": "",
          "type": "address"
        }
      ],
      "name": "userGreetingCounter",
      "outputs": [
        {
          "internalType": "uint256",
          "name": "",
          "type": "uint256"
        }
      ],
      "stateMutability": "view",
      "type": "function"
    },
    {
      "inputs": [],
      "name": "withdraw",
      "outputs": [],
      "stateMutability": "nonpayable",
      "type": "function"
    },
    {
      "stateMutability": "payable",
      "type": "receive"
    }
  ],
  "transactionHash": "0x3af56bd44d9a47f98493c7026899b6802a386a094e8443d463c48c066f386797",
  "args": [
    "0x8DCcD505B2B6676d9074fDFAC3261a929f00a8C3"
  ],
  "numDeployments": 2,
  "solcInputHash": "884f7f6187c9a9881f217b5ceb736506",
  "bytecode": "0x60e0604052601c60a09081527f4275696c64696e6720556e73746f707061626c6520417070732121210000000060c05260009061003c9082610127565b506001805460ff19169055600060025534801561005857600080fd5b50604051610a7c380380610a7c833981016040819052610077916101e6565b6001600160a01b0316608052610216565b634e487b7160e01b600052604160045260246000fd5b600181811c908216806100b257607f821691505b6020821081036100d257634e487b7160e01b600052602260045260246000fd5b50919050565b601f82111561012257600081815260208120601f850160051c810160208610156100ff5750805b601f850160051c820191505b8181101561011e5782815560010161010b565b5050505b505050565b81516001600160401b0381111561014057610140610088565b6101548161014e845461009e565b846100d8565b602080601f83116001811461018957600084156101715750858301515b600019600386901b1c1916600185901b17855561011e565b600085815260208120601f198616915b828110156101b857888601518255948401946001909101908401610199565b50858210156101d65787850151600019600388901b60f8161c191681555b5050505050600190811b01905550565b6000602082840312156101f857600080fd5b81516001600160a01b038116811461020f57600080fd5b9392505050565b60805161083e61023e6000396000818160b4015281816101cc0152610232015261083e6000f3fe60806040526004361061007f5760003560e01c8063cea49c3c1161004e578063cea49c3c1461012a578063e0a73a9314610157578063ef690cc014610181578063febb094f146101a357600080fd5b80633ccfd60b1461008b5780638da5cb5b146100a257806397feba9d146100f3578063a41368621461011757600080fd5b3661008657005b600080fd5b34801561009757600080fd5b506100a06101c1565b005b3480156100ae57600080fd5b506100d67f000000000000000000000000000000000000000000000000000000000000000081565b6040516001600160a01b0390911681526020015b60405180910390f35b3480156100ff57600080fd5b5061010960025481565b6040519081526020016100ea565b6100a06101253660046104db565b6102eb565b34801561013657600080fd5b5061010961014536600461058c565b60036020526000908152604090205481565b34801561016357600080fd5b506001546101719060ff1681565b60405190151581526020016100ea565b34801561018d57600080fd5b506101966103c6565b6040516100ea9190610602565b3480156101af57600080fd5b506101966101be3660046104db565b90565b336001600160a01b037f0000000000000000000000000000000000000000000000000000000000000000161461022e5760405162461bcd60e51b815260206004820152600d60248201526c2737ba103a34329027bbb732b960991b60448201526064015b60405180910390fd5b60007f00000000000000000000000000000000000000000000000000000000000000006001600160a01b03164760405160006040518083038185875af1925050503d806000811461029b576040519150601f19603f3d011682016040523d82523d6000602084013e6102a0565b606091505b50509050806102e85760405162461bcd60e51b81526020600482015260146024820152732330b4b632b2103a379039b2b7321022ba3432b960611b6044820152606401610225565b50565b61030e6040518060600160405280602181526020016107e8602191398233610454565b600061031a828261069d565b5060016002600082825461032e919061075d565b909155505033600090815260036020526040812080546001929061035390849061075d565b9091555050341561036f576001805460ff19168117905561037a565b6001805460ff191690555b336001600160a01b03167f94cbd7e04dca26a7667654f6448b2ca0a40fec602118dc5fd8c82b9cf3c645ad826000341160006040516103bb93929190610784565b60405180910390a250565b600080546103d390610615565b80601f01602080910402602001604051908101604052809291908181526020018280546103ff90610615565b801561044c5780601f106104215761010080835404028352916020019161044c565b820191906000526020600020905b81548152906001019060200180831161042f57829003601f168201915b505050505081565b61049b83838360405160240161046c939291906107a9565b60408051601f198184030181529190526020810180516001600160e01b03166395ed019560e01b1790526104a0565b505050565b6102e88160006a636f6e736f6c652e6c6f679050600080835160208501845afa505050565b634e487b7160e01b600052604160045260246000fd5b6000602082840312156104ed57600080fd5b813567ffffffffffffffff8082111561050557600080fd5b818401915084601f83011261051957600080fd5b81358181111561052b5761052b6104c5565b604051601f8201601f19908116603f01168101908382118183101715610553576105536104c5565b8160405282815287602084870101111561056c57600080fd5b826020860160208301376000928101602001929092525095945050505050565b60006020828403121561059e57600080fd5b81356001600160a01b03811681146105b557600080fd5b9392505050565b6000815180845260005b818110156105e2576020818501810151868301820152016105c6565b506000602082860101526020601f19601f83011685010191505092915050565b6020815260006105b560208301846105bc565b600181811c9082168061062957607f821691505b60208210810361064957634e487b7160e01b600052602260045260246000fd5b50919050565b601f82111561049b57600081815260208120601f850160051c810160208610156106765750805b601f850160051c820191505b8181101561069557828155600101610682565b505050505050565b815167ffffffffffffffff8111156106b7576106b76104c5565b6106cb816106c58454610615565b8461064f565b602080601f83116001811461070057600084156106e85750858301515b600019600386901b1c1916600185901b178555610695565b600085815260208120601f198616915b8281101561072f57888601518255948401946001909101908401610710565b508582101561074d5787850151600019600388901b60f8161c191681555b5050505050600190811b01905550565b8082018082111561077e57634e487b7160e01b600052601160045260246000fd5b92915050565b60608152600061079760608301866105bc565b93151560208301525060400152919050565b6060815260006107bc60608301866105bc565b82810360208401526107ce81866105bc565b91505060018060a01b038316604083015294935050505056fe53657474696e67206e6577206772656574696e6720272573272066726f6d202573a2646970667358221220314141f8b082e42c598629b58e2402f71e8c9cb30af2097fa11dc58a06fdf5e664736f6c63430008110033",
  "devdoc": {
    "author": "BuidlGuidl",
    "kind": "dev",
    "methods": {
      "setGreeting(string)": {
        "params": {
          "_newGreeting": "(string memory) - new greeting to save on the contract"
        }
      }
    },
    "version": 1
  },
  "userdoc": {
    "kind": "user",
    "methods": {
      "setGreeting(string)": {
        "notice": "Function that allows anyone to change the state variable \"greeting\" of the contract and increase the counters"
      },
      "withdraw()": {
        "notice": "Function that allows the owner to withdraw all the Ether in the contract The function can only be called by the owner of the contract as defined by the isOwner modifier"
      }
    },
    "notice": "A smart contract that allows changing a state variable of the contract and tracking the changes It also allows the owner to withdraw the Ether in the contract",
    "version": 1
  },
  "storageLayout": {
    "storage": [
      {
        "astId": 8,
        "contract": "contracts/YourContract.sol:YourContract",
        "label": "greeting",
        "offset": 0,
        "slot": "0",
        "type": "t_string_storage"
      },
      {
        "astId": 11,
        "contract": "contracts/YourContract.sol:YourContract",
        "label": "premium",
        "offset": 0,
        "slot": "1",
        "type": "t_bool"
      },
      {
        "astId": 14,
        "contract": "contracts/YourContract.sol:YourContract",
        "label": "totalCounter",
        "offset": 0,
        "slot": "2",
        "type": "t_uint256"
      },
      {
        "astId": 18,
        "contract": "contracts/YourContract.sol:YourContract",
        "label": "userGreetingCounter",
        "offset": 0,
        "slot": "3",
        "type": "t_mapping(t_address,t_uint256)"
      }
    ],
    "types": {
      "t_address": {
        "encoding": "inplace",
        "label": "address",
        "numberOfBytes": "20"
      },
      "t_bool": {
        "encoding": "inplace",
        "label": "bool",
        "numberOfBytes": "1"
      },
      "t_mapping(t_address,t_uint256)": {
        "encoding": "mapping",
        "key": "t_address",
        "label": "mapping(address => uint256)",
        "numberOfBytes": "32",
        "value": "t_uint256"
      },
      "t_string_storage": {
        "encoding": "bytes",
        "label": "string",
        "numberOfBytes": "32"
      },
      "t_uint256": {
        "encoding": "inplace",
        "label": "uint256",
        "numberOfBytes": "32"
      }
    }
  }
}