{
  "address": "0x43Aa8B427861047fD1484bB1E8A173608d3B620B",
  "abi": [
    {
      "inputs": [
        {
          "internalType": "address",
          "name": "_owner",
          "type": "address"
        }
      ],
      "stateMutability": "nonpayable",
      "type": "constructor"
    },
    {
      "anonymous": false,
      "inputs": [
        {
          "indexed": true,
          "internalType": "address",
          "name": "greetingSetter",
          "type": "address"
        },
        {
          "indexed": false,
          "internalType": "string",
          "name": "newGreeting",
          "type": "string"
        },
        {
          "indexed": false,
          "internalType": "bool",
          "name": "premium",
          "type": "bool"
        },
        {
          "indexed": false,
          "internalType": "uint256",
          "name": "value",
          "type": "uint256"
        }
      ],
      "name": "GreetingChange",
      "type": "event"
    },
    {
      "inputs": [
        {
          "internalType": "address",
          "name": "_address",
          "type": "address"
        }
      ],
      "name": "getAddress",
      "outputs": [
        {
          "internalType": "address",
          "name": "",
          "type": "address"
        }
      ],
      "stateMutability": "pure",
      "type": "function"
    },
    {
      "inputs": [
        {
          "internalType": "bytes32",
          "name": "data",
          "type": "bytes32"
        }
      ],
      "name": "getBytes",
      "outputs": [
        {
          "internalType": "bytes32",
          "name": "",
          "type": "bytes32"
        }
      ],
      "stateMutability": "pure",
      "type": "function"
    },
    {
      "inputs": [
        {
          "internalType": "int256",
          "name": "data",
          "type": "int256"
        }
      ],
      "name": "getInteger",
      "outputs": [
        {
          "internalType": "int256",
          "name": "",
          "type": "int256"
        }
      ],
      "stateMutability": "pure",
      "type": "function"
    },
    {
      "inputs": [
        {
          "internalType": "string",
          "name": "rubbish",
          "type": "string"
        }
      ],
      "name": "getRubbish",
      "outputs": [
        {
          "internalType": "string",
          "name": "",
          "type": "string"
        }
      ],
      "stateMutability": "pure",
      "type": "function"
    },
    {
      "inputs": [],
      "name": "greeting",
      "outputs": [
        {
          "internalType": "string",
          "name": "",
          "type": "string"
        }
      ],
      "stateMutability": "view",
      "type": "function"
    },
    {
      "inputs": [],
      "name": "owner",
      "outputs": [
        {
          "internalType": "address",
          "name": "",
          "type": "address"
        }
      ],
      "stateMutability": "view",
      "type": "function"
    },
    {
      "inputs": [],
      "name": "premium",
      "outputs": [
        {
          "internalType": "bool",
          "name": "",
          "type": "bool"
        }
      ],
      "stateMutability": "view",
      "type": "function"
    },
    {
      "inputs": [
        {
          "internalType": "string",
          "name": "_newGreeting",
          "type": "string"
        }
      ],
      "name": "setGreeting",
      "outputs": [],
      "stateMutability": "payable",
      "type": "function"
    },
    {
      "inputs": [],
      "name": "totalCounter",
      "outputs": [
        {
          "internalType": "uint256",
          "name": "",
          "type": "uint256"
        }
      ],
      "stateMutability": "view",
      "type": "function"
    },
    {
      "inputs": [
        {
          "internalType": "address",
          "name": "",
          "type": "address"
        }
      ],
      "name": "userGreetingCounter",
      "outputs": [
        {
          "internalType": "uint256",
          "name": "",
          "type": "uint256"
        }
      ],
      "stateMutability": "view",
      "type": "function"
    },
    {
      "inputs": [],
      "name": "withdraw",
      "outputs": [],
      "stateMutability": "nonpayable",
      "type": "function"
    },
    {
      "stateMutability": "payable",
      "type": "receive"
    }
  ],
  "transactionHash": "0x93d47193047cbf9965b68242a99875ccae2ef9aa033a791a75ca80c13a73dc75",
  "args": [
    "0x8DCcD505B2B6676d9074fDFAC3261a929f00a8C3"
  ],
  "numDeployments": 1,
  "solcInputHash": "c2e4419605dfe9f43d51874ddfb97357",
  "bytecode": "0x60e0604052601c60a09081527f4275696c64696e6720556e73746f707061626c6520417070732121210000000060c05260009061003c9082610127565b506001805460ff19169055600060025534801561005857600080fd5b50604051610aec380380610aec833981016040819052610077916101e6565b6001600160a01b0316608052610216565b634e487b7160e01b600052604160045260246000fd5b600181811c908216806100b257607f821691505b6020821081036100d257634e487b7160e01b600052602260045260246000fd5b50919050565b601f82111561012257600081815260208120601f850160051c810160208610156100ff5750805b601f850160051c820191505b8181101561011e5782815560010161010b565b5050505b505050565b81516001600160401b0381111561014057610140610088565b6101548161014e845461009e565b846100d8565b602080601f83116001811461018957600084156101715750858301515b600019600386901b1c1916600185901b17855561011e565b600085815260208120601f198616915b828110156101b857888601518255948401946001909101908401610199565b50858210156101d65787850151600019600388901b60f8161c191681555b5050505050600190811b01905550565b6000602082840312156101f857600080fd5b81516001600160a01b038116811461020f57600080fd5b9392505050565b6080516108ae61023e6000396000818160d501528181610223015261028901526108ae6000f3fe6080604052600436106100a05760003560e01c8063c031a18011610064578063c031a18014610169578063cd7c6a5314610169578063cea49c3c14610184578063e0a73a93146101b1578063ef690cc0146101db578063febb094f146101fd57600080fd5b80633ccfd60b146100ac5780638da5cb5b146100c357806397feba9d14610114578063a413686214610138578063ae22c57d1461014b57600080fd5b366100a757005b600080fd5b3480156100b857600080fd5b506100c1610218565b005b3480156100cf57600080fd5b506100f77f000000000000000000000000000000000000000000000000000000000000000081565b6040516001600160a01b0390911681526020015b60405180910390f35b34801561012057600080fd5b5061012a60025481565b60405190815260200161010b565b6100c1610146366004610532565b610342565b34801561015757600080fd5b506100f76101663660046105e3565b90565b34801561017557600080fd5b5061012a610166366004610613565b34801561019057600080fd5b5061012a61019f3660046105e3565b60036020526000908152604090205481565b3480156101bd57600080fd5b506001546101cb9060ff1681565b604051901515815260200161010b565b3480156101e757600080fd5b506101f061041d565b60405161010b9190610672565b34801561020957600080fd5b506101f0610166366004610532565b336001600160a01b037f000000000000000000000000000000000000000000000000000000000000000016146102855760405162461bcd60e51b815260206004820152600d60248201526c2737ba103a34329027bbb732b960991b60448201526064015b60405180910390fd5b60007f00000000000000000000000000000000000000000000000000000000000000006001600160a01b03164760405160006040518083038185875af1925050503d80600081146102f2576040519150601f19603f3d011682016040523d82523d6000602084013e6102f7565b606091505b505090508061033f5760405162461bcd60e51b81526020600482015260146024820152732330b4b632b2103a379039b2b7321022ba3432b960611b604482015260640161027c565b50565b6103656040518060600160405280602181526020016108586021913982336104ab565b6000610371828261070d565b5060016002600082825461038591906107cd565b90915550503360009081526003602052604081208054600192906103aa9084906107cd565b909155505034156103c6576001805460ff1916811790556103d1565b6001805460ff191690555b336001600160a01b03167f94cbd7e04dca26a7667654f6448b2ca0a40fec602118dc5fd8c82b9cf3c645ad82600034116000604051610412939291906107f4565b60405180910390a250565b6000805461042a90610685565b80601f016020809104026020016040519081016040528092919081815260200182805461045690610685565b80156104a35780601f10610478576101008083540402835291602001916104a3565b820191906000526020600020905b81548152906001019060200180831161048657829003601f168201915b505050505081565b6104f28383836040516024016104c393929190610819565b60408051601f198184030181529190526020810180516001600160e01b03166395ed019560e01b1790526104f7565b505050565b61033f8160006a636f6e736f6c652e6c6f679050600080835160208501845afa505050565b634e487b7160e01b600052604160045260246000fd5b60006020828403121561054457600080fd5b813567ffffffffffffffff8082111561055c57600080fd5b818401915084601f83011261057057600080fd5b8135818111156105825761058261051c565b604051601f8201601f19908116603f011681019083821181831017156105aa576105aa61051c565b816040528281528760208487010111156105c357600080fd5b826020860160208301376000928101602001929092525095945050505050565b6000602082840312156105f557600080fd5b81356001600160a01b038116811461060c57600080fd5b9392505050565b60006020828403121561062557600080fd5b5035919050565b6000815180845260005b8181101561065257602081850181015186830182015201610636565b506000602082860101526020601f19601f83011685010191505092915050565b60208152600061060c602083018461062c565b600181811c9082168061069957607f821691505b6020821081036106b957634e487b7160e01b600052602260045260246000fd5b50919050565b601f8211156104f257600081815260208120601f850160051c810160208610156106e65750805b601f850160051c820191505b81811015610705578281556001016106f2565b505050505050565b815167ffffffffffffffff8111156107275761072761051c565b61073b816107358454610685565b846106bf565b602080601f83116001811461077057600084156107585750858301515b600019600386901b1c1916600185901b178555610705565b600085815260208120601f198616915b8281101561079f57888601518255948401946001909101908401610780565b50858210156107bd5787850151600019600388901b60f8161c191681555b5050505050600190811b01905550565b808201808211156107ee57634e487b7160e01b600052601160045260246000fd5b92915050565b606081526000610807606083018661062c565b93151560208301525060400152919050565b60608152600061082c606083018661062c565b828103602084015261083e818661062c565b91505060018060a01b038316604083015294935050505056fe53657474696e67206e6577206772656574696e6720272573272066726f6d202573a2646970667358221220cfd80fa3a46dc31a7a1dc41f8c387c202466f9307c43b9cb5096ef7130c7580964736f6c63430008110033",
  "devdoc": {
    "author": "BuidlGuidl",
    "kind": "dev",
    "methods": {
      "setGreeting(string)": {
        "params": {
          "_newGreeting": "(string memory) - new greeting to save on the contract"
        }
      }
    },
    "version": 1
  },
  "userdoc": {
    "kind": "user",
    "methods": {
      "setGreeting(string)": {
        "notice": "Function that allows anyone to change the state variable \"greeting\" of the contract and increase the counters"
      },
      "withdraw()": {
        "notice": "Function that allows the owner to withdraw all the Ether in the contract The function can only be called by the owner of the contract as defined by the isOwner modifier"
      }
    },
    "notice": "A smart contract that allows changing a state variable of the contract and tracking the changes It also allows the owner to withdraw the Ether in the contract",
    "version": 1
  },
  "storageLayout": {
    "storage": [
      {
        "astId": 37,
        "contract": "contracts/YourContract.sol:YourContract",
        "label": "greeting",
        "offset": 0,
        "slot": "0",
        "type": "t_string_storage"
      },
      {
        "astId": 40,
        "contract": "contracts/YourContract.sol:YourContract",
        "label": "premium",
        "offset": 0,
        "slot": "1",
        "type": "t_bool"
      },
      {
        "astId": 43,
        "contract": "contracts/YourContract.sol:YourContract",
        "label": "totalCounter",
        "offset": 0,
        "slot": "2",
        "type": "t_uint256"
      },
      {
        "astId": 47,
        "contract": "contracts/YourContract.sol:YourContract",
        "label": "userGreetingCounter",
        "offset": 0,
        "slot": "3",
        "type": "t_mapping(t_address,t_uint256)"
      }
    ],
    "types": {
      "t_address": {
        "encoding": "inplace",
        "label": "address",
        "numberOfBytes": "20"
      },
      "t_bool": {
        "encoding": "inplace",
        "label": "bool",
        "numberOfBytes": "1"
      },
      "t_mapping(t_address,t_uint256)": {
        "encoding": "mapping",
        "key": "t_address",
        "label": "mapping(address => uint256)",
        "numberOfBytes": "32",
        "value": "t_uint256"
      },
      "t_string_storage": {
        "encoding": "bytes",
        "label": "string",
        "numberOfBytes": "32"
      },
      "t_uint256": {
        "encoding": "inplace",
        "label": "uint256",
        "numberOfBytes": "32"
      }
    }
  }
}