{
  "address": "0x3FB4D81BbbD33158385F32f0aBDbBe56EeD2F203",
  "abi": [
    {
      "inputs": [
        {
          "internalType": "address",
          "name": "_owner",
          "type": "address"
        }
      ],
      "stateMutability": "nonpayable",
      "type": "constructor"
    },
    {
      "anonymous": false,
      "inputs": [
        {
          "indexed": true,
          "internalType": "address",
          "name": "greetingSetter",
          "type": "address"
        },
        {
          "indexed": false,
          "internalType": "string",
          "name": "newGreeting",
          "type": "string"
        },
        {
          "indexed": false,
          "internalType": "bool",
          "name": "premium",
          "type": "bool"
        },
        {
          "indexed": false,
          "internalType": "uint256",
          "name": "value",
          "type": "uint256"
        }
      ],
      "name": "GreetingChange",
      "type": "event"
    },
    {
      "inputs": [],
      "name": "greeting",
      "outputs": [
        {
          "internalType": "string",
          "name": "",
          "type": "string"
        }
      ],
      "stateMutability": "view",
      "type": "function"
    },
    {
      "inputs": [],
      "name": "owner",
      "outputs": [
        {
          "internalType": "address",
          "name": "",
          "type": "address"
        }
      ],
      "stateMutability": "view",
      "type": "function"
    },
    {
      "inputs": [],
      "name": "premium",
      "outputs": [
        {
          "internalType": "bool",
          "name": "",
          "type": "bool"
        }
      ],
      "stateMutability": "view",
      "type": "function"
    },
    {
      "inputs": [
        {
          "internalType": "string",
          "name": "_newGreeting",
          "type": "string"
        }
      ],
      "name": "setGreeting",
      "outputs": [],
      "stateMutability": "payable",
      "type": "function"
    },
    {
      "inputs": [],
      "name": "totalCounter",
      "outputs": [
        {
          "internalType": "uint256",
          "name": "",
          "type": "uint256"
        }
      ],
      "stateMutability": "view",
      "type": "function"
    },
    {
      "inputs": [
        {
          "internalType": "address",
          "name": "",
          "type": "address"
        }
      ],
      "name": "userGreetingCounter",
      "outputs": [
        {
          "internalType": "uint256",
          "name": "",
          "type": "uint256"
        }
      ],
      "stateMutability": "view",
      "type": "function"
    },
    {
      "inputs": [],
      "name": "withdraw",
      "outputs": [],
      "stateMutability": "nonpayable",
      "type": "function"
    },
    {
      "stateMutability": "payable",
      "type": "receive"
    }
  ],
  "transactionHash": "0x8ecbe1a5c0bdb8efdcfd825468a4362a1f73f31091b6a1413e036a52f88e6190",
  "args": [
    "0xdf59Eb059e698abe1c1a406567b7aA971c158df9"
  ],
  "numDeployments": 1,
  "solcInputHash": "8cdc4151f3f9a96d1d09566b725a26f9",
  "bytecode": "0x60a03461011057601f61089238819003918201601f19168301916001600160401b038311848410176101155780849260209460405283398101031261011057516001600160a01b038116810361011057600080546001908181811c91168015610106575b60208210146100f257601f81116100c6575b507f48656c6c6f20576f726c642100000000000000000000000000000000000000188255805460ff19169055600255608052604051610766908161012c823960805181818161053f01526105840152f35b82805281601f60208520920160051c8201915b8281106100e7575050610075565b8481550182906100d9565b634e487b7160e01b83526022600452602483fd5b90607f1690610063565b600080fd5b634e487b7160e01b600052604160045260246000fdfe6080604081815260049182361015610022575b505050361561002057600080fd5b005b600092833560e01c9182633ccfd60b1461056e575081638da5cb5b1461052a57816397feba9d1461050b578163a4136862146101c9578163cea49c3c1461018b57508063e0a73a93146101685763ef690cc01461007f5780610012565b3461016457816003193601126101645780519082805461009e816106b6565b8085529160019180831690811561013c57506001146100e0575b5050506100ca826100dc940383610662565b519182916020835260208301906106f0565b0390f35b80809650527f290decd9548b62a8d60345a988386fc84ba6bc95484008f6362f93160ef3e5635b828610610124575050506100ca8260206100dc95820101946100b8565b80546020878701810191909152909501948101610107565b6100dc9750869350602092506100ca94915060ff191682840152151560051b820101946100b8565b5080fd5b503461016457816003193601126101645760209060ff6001541690519015158152f35b9050346101c55760203660031901126101c557356001600160a01b038116908190036101c557828291602094526003845220549051908152f35b8280fd5b839150602090816003193601126101c55780359367ffffffffffffffff9182861161050757366023870112156105075785810135926102078461069a565b9361021484519586610662565b80855260249736898383010111610503578188928a89930183890137860101528587845160608101818110858211176104f157918392916102a994928852602181527f53657474696e67206e6577206772656574696e6720272573272066726f6d20258a820152607360f81b888201526102bb885195869260608d8501956395ed019560e01b875285015260848401906106f0565b8281036023190160448401528a6106f0565b33606483015203936102d5601f1995868101835282610662565b51906a636f6e736f6c652e6c6f675afa5084519182116104df5781906102fb88546106b6565b601f8111610473575b508690601f83116001146103f9575087916103ee575b508160011b916000199060031b1c19161785555b600254906001918281018091116103dc57600255338652600385528286208054918383018093116103ca57507f94cbd7e04dca26a7667654f6448b2ca0a40fec602118dc5fd8c82b9cf3c645ad959697505534151590816000146103bd57805460ff1916811790555b6103ab8251936060855260608501906106f0565b9483015234908201528033930390a280f35b805460ff19169055610397565b634e487b7160e01b8852601190528787fd5b634e487b7160e01b8752601182528787fd5b90508401518861031a565b8880527f290decd9548b62a8d60345a988386fc84ba6bc95484008f6362f93160ef3e5639216885b8882821061045d5750509083600194939210610444575b5050811b01855561032e565b86015160001960f88460031b161c191690558880610438565b600184958293958b015181550194019201610421565b9091508780527f290decd9548b62a8d60345a988386fc84ba6bc95484008f6362f93160ef3e563601f840160051c8101918885106104d5575b90601f859493920160051c01905b8181106104c75750610304565b8981558493506001016104ba565b90915081906104ac565b634e487b7160e01b8752604183528787fd5b634e487b7160e01b8452604186528284fd5b8780fd5b8480fd5b5050346101645781600319360112610164576020906002549051908152f35b505034610164578160031936011261016457517f00000000000000000000000000000000000000000000000000000000000000006001600160a01b03168152602090f35b909291503461065e578360031936011261065e577f0000000000000000000000000000000000000000000000000000000000000000906001600160a01b038216330361062d5750838080809347905af13d15610628573d6105ce8161069a565b906105db84519283610662565b81528460203d92013e5b156105ee578280f35b906020606492519162461bcd60e51b835282015260146024820152732330b4b632b2103a379039b2b7321022ba3432b960611b6044820152fd5b6105e5565b62461bcd60e51b8152602084820152600d60248201526c2737ba103a34329027bbb732b960991b6044820152606490fd5b8380fd5b90601f8019910116810190811067ffffffffffffffff82111761068457604052565b634e487b7160e01b600052604160045260246000fd5b67ffffffffffffffff811161068457601f01601f191660200190565b90600182811c921680156106e6575b60208310146106d057565b634e487b7160e01b600052602260045260246000fd5b91607f16916106c5565b919082519283825260005b84811061071c575050826000602080949584010152601f8019910116010190565b6020818301810151848301820152016106fb56fea2646970667358221220d94f40b67a3dd408bac4293c98740b149687f691543ed9053fecde18a33deef464736f6c63430008130033",
  "devdoc": {
    "author": "BuidlGuidl",
    "kind": "dev",
    "methods": {
      "setGreeting(string)": {
        "params": {
          "_newGreeting": "(string memory) - new greeting to save on the contract"
        }
      }
    },
    "version": 1
  },
  "userdoc": {
    "kind": "user",
    "methods": {
      "setGreeting(string)": {
        "notice": "Function that allows anyone to change the state variable \"greeting\" of the contract and increase the counters"
      },
      "withdraw()": {
        "notice": "Function that allows the owner to withdraw all the Ether in the contract The function can only be called by the owner of the contract as defined by the isOwner modifier"
      }
    },
    "notice": "A smart contract that allows changing a state variable of the contract and tracking the changes It also allows the owner to withdraw the Ether in the contract",
    "version": 1
  },
  "storageLayout": {
    "storage": [
      {
        "astId": 8,
        "contract": "contracts/YourContract.sol:YourContract",
        "label": "greeting",
        "offset": 0,
        "slot": "0",
        "type": "t_string_storage"
      },
      {
        "astId": 11,
        "contract": "contracts/YourContract.sol:YourContract",
        "label": "premium",
        "offset": 0,
        "slot": "1",
        "type": "t_bool"
      },
      {
        "astId": 14,
        "contract": "contracts/YourContract.sol:YourContract",
        "label": "totalCounter",
        "offset": 0,
        "slot": "2",
        "type": "t_uint256"
      },
      {
        "astId": 18,
        "contract": "contracts/YourContract.sol:YourContract",
        "label": "userGreetingCounter",
        "offset": 0,
        "slot": "3",
        "type": "t_mapping(t_address,t_uint256)"
      }
    ],
    "types": {
      "t_address": {
        "encoding": "inplace",
        "label": "address",
        "numberOfBytes": "20"
      },
      "t_bool": {
        "encoding": "inplace",
        "label": "bool",
        "numberOfBytes": "1"
      },
      "t_mapping(t_address,t_uint256)": {
        "encoding": "mapping",
        "key": "t_address",
        "label": "mapping(address => uint256)",
        "numberOfBytes": "32",
        "value": "t_uint256"
      },
      "t_string_storage": {
        "encoding": "bytes",
        "label": "string",
        "numberOfBytes": "32"
      },
      "t_uint256": {
        "encoding": "inplace",
        "label": "uint256",
        "numberOfBytes": "32"
      }
    }
  }
}